:020000040800F2
:10000000C80800206102000899410008753D0008F9
:100010009541000811200008C542000800000000BA
:10002000000000000000000000000000A1410008E6
:1000300015200008000000009D410008A5410008AF
:100040007B0200087B0200087B0200087B0200089C
:100050007B0200087B0200087B0200087B0200088C
:100060007B0200087B0200087B0200087B0200087C
:100070007B0200087B0200087B0200087B0200086C
:100080007B0200087B0200087B0200087B0200085C
:100090007B0200087B0200087B0200087B0200084C
:1000A0007B0200087B0200087B0200087B0200083C
:1000B0007B0200087B0200087B0200087B0200082C
:1000C0007B0200087B0200087B0200087B0200081C
:1000D0007B020008B94200087B0200087B0200088E
:1000E0007B0200087B0200087B02000800F002F897
:1000F00000F0A6F814A696E8000CB244B344DA4522
:1001000001D100F09DF8BAE80F000FA696E8300084
:10011000A5EB040504EB0607AAEB0704A7F101070A
:100120004FEA15154FEA3414A4F10104AC4201D38F
:1001300000F086F813F0010F18BFFB1A43F001031B
:1001400000F001F8DBE71847EC6B00000C6C0000D6
:10015000103A24BF78C878C1FAD8520724BF30C8F3
:1001600030C144BF04680C60704700007047000055
:100170000023002400250026103A28BF78C1FBD8B0
:10018000520728BF30C148BF0B6070476E2900F08E
:100190000583702900F05586662906F0AF8465292D
:1001A00006F0AC84672906F0A984612906F0A884CA
:1001B00003681B0A28BF41F08001692900F098807C
:1001C000642900F09580752900F092806F2900F075
:1001D000E385782900F02186E92900F07D85E4296E
:1001E00000F07A85F52900F07785EF2900F0E085A9
:1001F000F82900F020860368DB0928BF41F0800160
:10020000632901F0DF80732901F0E480E32901F024
:10021000EF80F32901F0F480002070471FB500F053
:10022000B7FE04000020002106F04AF8401C606080
:100230000020002106F02EF8E0601FBD10B510BDB3
:1002400001F0E8F91146FFF7E9FF05F0B5F801F014
:1002500091FC03B4FFF7F2FF03BC01F0D1FE0000F4
:100260000948804709480047FEE7FEE7FEE7FEE74A
:10027000FEE7FEE7FEE7FEE7FEE7FEE70448054986
:10028000054A064B70470000A9410008ED00000830
:10029000C8020020C8080020C8040020C8040020AC
:1002A0001CB50C46064B7B4469460090204600F086
:1002B0009CFC04460020694600F0AAFC20461CBDB8
:1002C000670900000FB41CB5084B06AA7B446946B9
:1002D0000090059800F089FC04460020694600F073
:1002E00097FC20461CBC5DF814FB0000410900008F
:1002F0002DE9F0410646002410687529314616A5FF
:1003000010D000F0B7F9002802DA404213A507E048
:1003100031688A0701D512A502E0490704D511A565
:10032000012401E000F0AFF900210A2206F12407C0
:1003300009E0B0FBF2FCB0FBF2F302FB1C00303032
:1003400078541846491C0028F3D123462A463046E3
:10035000BDE8F04100F0C9B9000000002D00000028
:100360002B000000200000002DE9F05F89460446C4
:100370004FF0000ADFF874B1FB44C0F820A020461B
:10038000E1688847002874D0252806D0D4E90121E7
:100390009047206A401C2062F1E700265F46204615
:1003A000E16888472028054607DB312D05D27819FA
:1003B00010F8200C08B10643F1E7B00701D526F08C
:1003C0000406C4F81CA00027C4F818A02A2D09D0E0
:1003D000284605F0DCFE38B304EB8708303DC8F84A
:1003E000185019E059F8041B204604EB870291616C
:1003F000E1688847012F054618D1E069002820DA16
:1004000026F020061DE0D8F8180000EB800005EB70
:1004100040003038C8F818002046E1688847054693
:1004200005F0B5FE0028EED1012F0AD02E2D08D1FF
:100430002046E16888477F1C0546022F46F02006CB
:10044000C4DBA069002803DA404246F00106A0613F
:10045000F00701D026F010066C2D0BD0682D09D0C6
:100460004C2D39D06A2D35D0742D35D07A2D33D01E
:1004700016E038E0E1682F4620468847B842054636
:1004800009D16C2F26D04FF48060E16806432046E6
:100490008847054604E06C2F1AD04FF4807006435D
:1004A0000DB3A5F14100192802D8203546F40066A5
:1004B0004A462946204626604E46FFF767FE80B131
:1004C00001280BD0F61D26F0070000F1080956E7B9
:1004D0004020E4E78020D8E70020D6E706F10409B1
:1004E0004DE7284652E7206ABDE8F09F8468000087
:1004F00070B5064600F088F80468054630460A22C2
:10050000002100F001FD2C6070BD401ECAB210F841
:10051000011F8A4202D00029F9D10020704730B56E
:1005200005460B462A4613F8014B12F8010B08B199
:10053000A042F8D01CB1002802D06D1CF1E728467B
:1005400030BD10B5431C02E010F8011B71B18107EA
:10055000FAD14FF0013202C88C1A8C4314EAC2114E
:10056000F9D0C01A0A0603D0C01E10BDC01A10BDB3
:100570000A0401D0801E10BD0902FCD0401E10BD2F
:100580004FF0013C50F8042B51F8043B9A4221D122
:10059000A2EB0C03934313EACC1317D150F8042BAE
:1005A00051F8043B9A4215D1A2EB0C03934313EA92
:1005B000CC130BD150F8042B51F8043B9A4209D1CB
:1005C000A2EB0C03934313EACC13DBD04FF00000F3
:1005D000704700BFD01A01BAB1FA81F101F01801D9
:1005E00022FA01F0CB40DBB2C0B2C01AC1F1200147
:1005F0002CFA01F3D11A914311EAC311E6D17047E5
:100600007047704770470000004870471000002096
:1006100010B5FFF7F9FF006810BD10B50446FFF7ED
:10062000F3FF046010BD70B5044685690068C1061B
:1006300001D5302600E02026C00707D070BDD4E9E0
:10064000012130469047206A401C20626D1EF6D57D
:1006500070BD70B5044685690078C00707D170BDCC
:10066000D4E9012120209047206A401C20626D1EA1
:10067000F6D570BD09684A0501D540B27047C90575
:10068000FCD500B2704709684A0501D5C0B2704771
:10069000C905FCD580B2704770B50C460546012AE5
:1006A00005D02878800600D5EA69002302E00123FE
:1006B00005E05B1C934202D2E05C0028F9D1A869F6
:1006C000E618C01AA861286A184428622846FFF76D
:1006D000AAFF04E0D5E9012114F8010B9047B442C8
:1006E000F8D32846FFF7B5FF70BD2DE9F0470D465A
:1006F00099469246044600F124080168880604D50C
:10070000E06921F01001216000E00120A84201DD34
:10071000471B00E00027A1697A1902EB0900081ABB
:10072000A0612078C00602D42046FFF77CFF002697
:1007300008E0D4E901211AF806009047206A401C1D
:10074000761C20624E45F4DB2078C0060AD5204690
:10075000FFF769FF06E0D4E9012130209047206AC5
:10076000401C2062381EA7F10107F4DC07E0D4E941
:10077000012118F805009047206A401C2062281EBD
:10078000A5F10105F3DC2046FFF763FF20780006A2
:1007900002D50220BDE8F0870120FBE7116802685E
:1007A000006A530501D508700AE0D30501D5088019
:1007B00006E0130603D5C217C1E9000200E0086095
:1007C000012070472DE9FF4F0C461E464FF0FF37C2
:1007D0008BB0D2E90001DDF860800A908A46C1F34F
:1007E0000A5505B93D46002108464FF00000BAF110
:1007F000000F00F4400005DA00EB80004FF44001E8
:1008000001EA50004FEA9059B9F1010F00DDB946F5
:100810000A9850EA4A000ED044F61050A5F2FF356F
:1008200045432F14B8F1000F1ED07542291E1EDD5E
:10083000C9F100021CE0B8F1010F4FF0000001D037
:10084000302103E0F24305E02154401CB042FBDBC1
:1008500030460022002121540B99C1F80880C1E9DB
:1008600000200FB0BDE8F08FBD1B6D1CDEE74A46CF
:1008700000DA694206A800F037FE06AB93E80700ED
:1008800003AB83E8070050460A9904F0B7FF8DE8F0
:100890000700A0F500501F3800900398002D0ADDD6
:1008A00042F21F014A460844002303A90390684608
:1008B00005F062FA09E0A0F500504A461F3800230F
:1008C00003A90390684605F081FA8DE8070000044B
:1008D000000C03D04FF0FF30410800E01046B8F1A3
:1008E000000F03D00022009215461EE0751E05D4AD
:1008F00000F052FB303262556D1EF9D5B34601222D
:10090000084302D000227F1C04E02078302801D167
:1009100000227F1E002A099784D01DE0112D07DADE
:1009200000F03AFB303262556D1C50EA0102F5D1FD
:10093000084302D00098C8B10EE00021681E05E00F
:10094000235C625C63542254401E491C8142F7DBE5
:10095000AB46A81B401E0990002004F80B000B9822
:10096000099AC0F80880C0E9002B7AE711264FF0F9
:10097000000857E72DE9F04F88460446D21D22F0C3
:10098000070191B0D1E90001CDE90A0105F06AFB48
:1009900002460B98C00F01D02D2007E02068810788
:1009A00001D52B2002E0202101EAC000032A099092
:1009B00001D0072A05DB03464146204600F0B8FC7B
:1009C0000BE12078800601D5E06900E00620B8F14F
:1009D000650F814606D0B8F1660F18D0B8F1670FE1
:1009E00070D131E00020B9F1110F009001DB11232B
:1009F00001E009F101030AAA01A90CA8FFF7E2FE30
:100A0000DDE90C70002609F10105834647E001206D
:100A10004B4600904FF000470AAA01A90CA8FFF727
:100A2000D1FEDDE90DB00C995D46002610B909F143
:100A300001000D18B9EB050003D4C0F1FF3609F130
:100A40000105A5EB09002BE0B9F1010F01DA4FF028
:100A500001090020B9F1110F0090484601DD112372
:100A600000E003460AAA01A90CA8FFF7ABFEDDE9E6
:100A70000C704D4600268346207800070AD4AB450B
:100A800000DA5D4601A8012D04DD411911F8011CB1
:100A9000302907D04F4502DA17F1040F04DA01209C
:100AA00082460FE06D1EEEE7002F02DCED1B3E4498
:100AB00003E0781CA84200DD7D1CB81B00F1010A90
:100AC0004FF000472078000703D4AA4501DB4FF020
:100AD000FF3A0021B7F1004F0DF143088DF84310A4
:100AE00024D002202B23002F01DA7F422D230A215C
:100AF000021EA0F1010000DC5FB197FBF1FC97FB47
:100B0000F1F201FB1C7C17460CF1300C08F801CD0A
:100B1000EEE7A8F1010003702188090501D5452100
:100B200000E06521A0F1010800F8011C09980FA957
:100B3000A1EB0807FF1D00B10120411901EBEA708C
:100B4000A1693844081A401EA0612078C00602D46A
:100B50002046FFF768FD099828B1D4E901219047A4
:100B6000206A401C20622078C00622D52046FFF76C
:100B70005AFD1EE0002E04DBB34502DD01A8805DB6
:100B800000E03020D4E901219047206A401C206217
:100B9000761CAAF101005FEA000A0AD100F0F8F918
:100BA000C0680168405CD4E901219047206A401C7C
:100BB0002062281EA5F10105DCDC07E0D4E9012153
:100BC00018F8010B9047206A401C2062381EA7F1DC
:100BD0000107F3DC2046FFF73CFD032011B041E69E
:100BE00001694A1C02610878704700B58FB0CDE9F1
:100BF00001310021059105497944CDE903101146E1
:100C00006846FFF7B1FB0FB000BD0000E5FFFFFF36
:100C10000A6802F8010B0A60704700002DE9FF5FC7
:100C200015468A460446DFF8AC80F8440027D8E928
:100C300000103E46CDE9001010E03AF816106A4662
:100C400002A800F0C3FC411C07D02178890603D517
:100C5000E269391891420DD80744761C2078800645
:100C600002D5E069B84205DDAE42E6DB3AF816008F
:100C70000028E2D1A069C01BA0612046FFF7D3FC89
:100C8000D8E90010CDE90010002017E03AF818105C
:100C90006A4602A800F09AFCB0F1FF3F81460BD0F3
:100CA00000250DF1080B05E0D4E901211BF8050032
:100CB00090476D1C4D45F7D308F10100B0428046C6
:100CC000E4DB206A384420622046FFF7C2FCBDE81E
:100CD000FF9F0000E65F00002DE9F0418046D21D35
:100CE00022F007020025D2E90002F52915A614D04A
:100CF000011E72F1000106DA0023D0EB030063EB62
:100D0000020211A608E0D8F800108B0701D50FA643
:100D100002E0490701D50EA601251146002408F17D
:100D2000240704E000F038F930323A55641C50EAE8
:100D30000102F7D12B46324621464046BDE8F0413C
:100D4000FFF7D3BC000000002D0000002B000000C6
:100D50002000000030B4002100F1240408E002F07B
:100D60000705D208303542EA4372DB086554491C56
:100D700052EA0305F3D10468002310A2250708D521
:100D800004F020040C4304D0C46901230CA2641EA7
:100D9000C46130BCFFF7A9BC10B5044621461068F9
:100DA000FFF771FC02462046BDE810400023D1E762
:100DB000D21D22F00701D1E90023CBE7000000009B
:100DC00030000000F0B40D460188090502D5214C21
:100DD0007C4402E01F4C7C440E34002100F12406C8
:100DE00008E002F00F071209E75D42EA03721B09EF
:100DF0007754491C52EA0307F3D102780023120703
:100E000004D5702D06D009B1022311342246F0BC5E
:100E1000FFF76BBC01231034F8E770B504460D46AC
:100E200021461068FFF72FFC024629462046BDE800
:100E300070400023C6E7D21D22F00703D3E9002348
:100E4000C0E70368126843F0200303600823C3610E
:100E50000023B7E7485E00000FB40B0010B54FF059
:100E600000048AB00FA900910E99CC60234C7C44F9
:100E7000234A7A44CDE9064200D004236FF00042B1
:100E8000CDE901321F4A7A446B460892024600209F
:100E900005F098FE0AB010BC5DF814FBF0B50746EB
:100EA0004FF0FF301E4615460C463B4685B06A465D
:100EB0000091CDE9010131460020049004A8FFF71C
:100EC000CBFF04990346601825B109B1024600E042
:100ED00022462A6000290ED0002B02DD00998142B3
:100EE00009D03B466A463146001B0094CDE9010417
:100EF00004A8FFF7B1FF05B0F0BD000097050000A2
:100F0000B1050000990100002DE9F04791460F4618
:100F100080460446002614F8015B2DB100F030F83D
:100F20000068405DC007F6D12B2D02D02D2D18D0C2
:100F3000641E4A463946204600F086FA27B13968D1
:100F4000A14201D1C7F800804FF0020471050BD512
:100F50004042002803DDFFF757FB0460A007BDE80F
:100F6000F08746F48066E4E70028F8DAFFF74CFBE8
:100F700004606FF00040F2E7004870471000002066
:100F800010B500F005F8001D10BD00BF355300007E
:100F9000004870473000002030B5B0F10A0271F10E
:100FA00000034FEA900E4EEA817EB0EB0E0061EB3B
:100FB00091014FEA101E4EEA017E10EB0E0041EB4C
:100FC00011114FEA102E4EEA016E10EB0E0041EBAC
:100FD00011214FEA104E4EEA014E10EB0E0041EB8C
:100FE0001141401841F100014FEAD00040EA417040
:100FF0004FEAD1014FEA810444EA907410EB800576
:1010000044EB01046D1944EB0404521BA3414FF05F
:10101000000348BF0A3200D530BD401C41F1000139
:1010200030BD10B50446FFF7ABFF0068005D00F06F
:10103000010010BD2DE9F04F04460D46D21D22F0EF
:10104000070089B0D0E900974846394605F00AF80C
:101050000246F80F01D02D2307E02068810701D553
:101060002B2302E0202101EAC0038DF820300BB1D0
:10107000012000E00020032A824601D0072A04DB79
:101080002946204600F054F93FE12078800601D43B
:101090000D2500E0E569C7F30A560D2D49DA002158
:1010A0004FEA175B08464FF00000002F00F44000A5
:1010B00007DA00EB80004FF4400100EBD07001EA4A
:1010C00060008115012901DD4FF0FF3100224FEA58
:1010D000850CBCF1180F06D31346ACF118004FF085
:1010E0008052C24003E04FF4801323FA0CF30CF15A
:1010F0000C0CBCF1200F04D3ACF1200C09FA0CF05D
:1011000001E007FA0CF000294FF0004801DD18B9A2
:101110000FE00ED140450CD319EB02095F4121B914
:10112000404502D19F4329EA0209BBEB175F00D07B
:10113000761C2088000502D57B48784402E07A4876
:101140007844193808AA302302F80A30037C0AF1DF
:101150000101002E0AF1020A53546A4602DC4FF0E4
:10116000300101E04FF031014FF001088DF800101F
:1011700002D0A6F2FF3603E059EA470100D06B4ED9
:10118000002D02DC2178090704D54FF002082E213A
:101190008DF80110C44600210BE0C7F303433F0163
:1011A000C35C491C6D1E02F80830052908F10108CE
:1011B00001DA002DF1DC00210CE000EB1973491C71
:1011C0001B786D1E082902F808304FEA091908F14A
:1011D000010801DA002DF0DC21688B0602D516E04B
:1011E000A8F10108E04505DD02EB080313F8013C16
:1011F000302BF5D0B8F1000F09DD02EB080313F82E
:10120000013C2E2B03D1090701D4A8F10108002DC0
:1012100005DD3E2102F808106D1E08F10108407C32
:10122000002E02F8080008F1010804DA2D207642A9
:1012300002F8080002E02B2002F808000A214FF40F
:101240007A70864208F101080BDB96FBF0F330332D
:1012500002F8083096FBF0F308F1010800FB136672
:1012600001E0642E0CDB642096FBF0F3303302F8CF
:10127000083096FBF0F308F1010800FB136601E06B
:101280000A2E06DB96FBF1F0303002F8080008F178
:10129000010896FBF1F001FB1060303002F8080005
:1012A000A16908F1010808EB050202EB0A00081A1F
:1012B000A0612078C00602D42046FFF7B4F9216A65
:1012C00008AE01EB0A00206204E0D4E9012116F81F
:1012D000010B9047BAF1010AF7D22078C00602D577
:1012E0002046FFF7A0F96E4609E016F8010B3E28EC
:1012F0000FD0D4E901219047206A401C2062B8F148
:101300000108F2D22046FFF7A4F909B00320BDE896
:10131000F08F206A2844206203E0D4E901213020C4
:1013200090476D1EEBD3F8E7195B000002FCFFFF4E
:101330002DE9F0411F46044603260168072A01F4FF
:10134000006004DB08B116A505E016A503E008B1AE
:1013500015A500E015A521F010002060A069C01EB1
:10136000A0610FB1401EA0612046FFF75CF94FB1AC
:10137000D4E9012138469047206A401C2062C01CF5
:10138000206206E0206AFAE7D4E9012115F8010B92
:101390009047761EF8D22046FFF75BF9BDE8F08152
:1013A0004E414E006E616E00494E4600696E660009
:1013B00010B5436913B1AFF3008001E0FFF76CF99A
:1013C000012010BD127800F124010A7000224A7039
:1013D0000122EDE711684FF0FF32E9E710B54369EC
:1013E00013B1AFF3008001E0FFF718FC012010BD3E
:1013F000128800F1240182840022C2840122EDE7D8
:1014000011684FF0FF32E9E7426842B1016811F814
:10141000013B23B1521EC0E900121846704701215A
:10142000C160881E704742685AB1C368016843B9F9
:1014300083688B4205D0491E521CC0E9001200206F
:1014400070474FF0FF3070472DE9F05F8246154638
:101450008B4600270AF10104B9460078302801D0F4
:101460009DB113E014F8010B0127782803D0582808
:1014700001D045B10AE00DB1102D07D1002714F8B5
:10148000010B102502E0082500E00A250026B046E1
:101490000EE005FB080005FB06F101271FFA80F8A6
:1014A00001EB1046B6F5803F00D3B94614F8010BA6
:1014B000294600F0D4F80028EBDABBF1000F05D084
:1014C0000FB1641E00E05446CBF80040B9F1000FA4
:1014D00006D0FFF799F802210160C81EBDE8F09F11
:1014E00048EA0640FAE700002DE9F0478146164633
:1014F0008AB0354878440DC88DE80D0032487844EC
:10150000801C03AC0DC884E80D0041F69B300844F4
:10151000372190FBF1F290FBF1F5A5F1800501FB7D
:1015200012041B3C02D56442012000E00020DFF8D9
:1015300098A080460027FA44AAF1BE0A0EE0E00710
:101540000AD03246684607EB470101230AEB8101C6
:1015500004F03CFC8DE8070064107F1C002CEED1E9
:10156000194F7F44AE3F19E0E80715D007EB041090
:101570000DF1180A90E80E008AE80E00C068F042EB
:1015800001D1981908903246012306A903A804F056
:101590001DFC03AB83E807006D10641C002DE3D134
:1015A0004FF0010332466946B8F1000F03A802D09C
:1015B00004F0E2FB01E004F009FCC9E90001C9F80C
:1015C00008200AB0BDE8F087F05700002DE9F0418F
:1015D00016460C460546FFF7D3FC036893F8010155
:1015E000012807D0FF2C12D8185D80B101202C7083
:1015F000BDE8F081D3F807013246214603F2071314
:10160000C7182846BC46BDE8F041002360474FF0AC
:10161000FF30EDE77546FFF7AFFCAE4605006946C3
:10162000534620F00700854618B020B5FEF726FE89
:10163000BDE820404FF000064FF000074FF00008D3
:101640004FF0000BAC46ACE8C009ACE8C009ACE810
:10165000C009ACE8C00921F007018D4670473A285F
:1016600000D2303820F02002412A01D3A2F1370005
:10167000884201D34FF0FF30704700002DE9FF4F43
:1016800006468BB00878FF2806D0491C2D2805D0C7
:1016900000244FF0000908E000200CE00124F8E7E6
:1016A00009EB8903491C00EB43090878FF28F7D1AF
:1016B00014B1C9F100008146107800252C46AA46D5
:1016C00029462D2801D02B2804D1521C2D2813D0B7
:1016D000002082468B461078FF280FD04FF0000C78
:1016E0000A21521CA5FB017804FB018105FB0C11AA
:1016F000C5194BEB0104EEE70120EAE7002108469B
:101700004FF00000BAF1000F02D000EB800040085B
:10171000C0F38157012F01DD4FF0FF370E9955EAD5
:10172000040009EB01080BD04FF0020918F5FA7F0D
:1017300016DA4FEACA70002F706008DD012007E05A
:101740004FEACA70C6E900B00FB0BDE8F08F0020C4
:101750003060FEF759FFC0F800901821084616E0E7
:10176000B8F5FA7F18DD002F02DAF748784401E077
:10177000F6487844D0E90010C6E9001040EACA7083
:101780007060FEF741FFC0F80090142108460FB0CA
:10179000BDE8F04F05F0AFB9002108464FF000005A
:1017A000B8F10001099002DAC7F1000200E03A4600
:1017B00001DAC8F1000106A8FFF796FE06AB93E830
:1017C000070003AB83E8070044F23E005BEA040134
:1017D0000090584604D144F21E012C465D4600910B
:1017E000210C0904014306D10099240444EA15445C
:1017F0002D041039009104F07F41014306D1009976
:10180000240244EA15642D020839009104F0704165
:10181000014306D10099240144EA15742D01091FE2
:10182000009104F04041014306D10099A40044EA2C
:101830009574AD00891E009104F00041084304D165
:1018400000986D196441401E00904FF001033A4624
:101850006846B8F1000FCDE9014503A902DD04F0A7
:10186000CAFA01E004F09DFABAF1000F04460D46F1
:1018700001D084F00044002108464FF0000009998F
:1018800040F2FF77484010F00C0F07D124F00040E1
:10189000284303D0C4F30A50B84212D1FEF7B4FE75
:1018A000C0F80090C4F30A50B8420AD1A84878445E
:1018B000D0E90010C6E9001004F000410843706050
:1018C00042E7C6E900543FE72DE9FF4F1F464FF0BE
:1018D000000A4FF0FF38454691B0D7E90146CDF8F0
:1018E0003CA0FFF755FBC0680168405C1090B969E7
:1018F00012986D1C8847396A814688470028F6D1BE
:10190000B9F1FF3F0AD0002E24F4D06411DDB9F103
:101910002B0F08D0B9F12D0F0BD102E0404615B0C6
:1019200013E744F48064B96912986D1C8847761EE9
:101930008146600504A901D52D2000E02B20002E52
:1019400001F1010B0DF130088DF810003FDDB9F108
:10195000690F08D0B9F1490F05D0B9F16E0F02D067
:10196000B9F14E0F1CD13B4601A8009580E850020A
:10197000DDE912126FF0020005F028F9C11CCED18A
:101980000EE0B96912986D1C884781461398761E3F
:1019900044F4007405600F98401C002E0F9016DD73
:1019A000B9F1300FEDD0B9F1780F02D0B9F1580F7D
:1019B0000DD10F9801280AD13B46CDE90054DDE94D
:1019C0001212001F029605F0FFF8C11CA7D1109952
:1019D00089453ED144F0800406E01399681CAAF1C1
:1019E000010A44F400740860B9696D1C1298761EEF
:1019F000884730288146F0D02BE01099894505D1E1
:101A0000200603D4761E44F0800418E0484604F013
:101A1000BEFB08B3761E0DF123029345A9F13000F9
:101A200044F4007406D20BF8010B200607D5AAF186
:101A3000010003E0200602D40AF101008246A0055D
:101A400002D51399681C0860B96912986D1C884703
:101A50008146002ED1DC53E0002E51DDB9F1650F37
:101A600002D0B9F1450F4BD1A00549D5B9696D1C1C
:101A70001298761E24F440748847002E81460CDDAF
:101A80002B2804D0B9F12D0F07D144F48074B96923
:101A900012986D1C8847761E8146E00501D52D21E0
:101AA00000E02B2108F8011BCDF8008021E0761E14
:101AB0000DF13901884544F400740CD2A9F13000CD
:101AC00010F0FF0088F8000002D10099884509D97C
:101AD00008F1010806E0E00501D51E4801E042F2E8
:101AE0000F708246B96912986D1C88478146139819
:101AF0000560002E04DD484604F049FB0028D6D1DD
:101B0000F96912988847FF2053468BF8000088F83F
:101B1000000000200A900B9004AA0CA90AA8FFF765
:101B2000ADFDA00502D46FF00100F8E614F0240F1B
:101B300012D0E0071CD13868DDE90A12031D3B60B2
:101B40000068C0E9001213E0EC550000DE5500000B
:101B5000A2540000F1D8FFFF0AA9684604F0A6FAD3
:101B6000E00705D13868009A011D396000680260FD
:101B70002846D4E610B50446AFF300802046BDE801
:101B80001040FEF766BBB2F120030AD5C2F1200374
:101B900001FA02F120FA03F341EA030100FA02F02C
:101BA000704700FA03F14FF0000070472DE9FF4F36
:101BB0001F464FF03C0987B04FF00042DDE914109A
:101BC00001F10108DDF858A002EA4050039000201E
:101BD00005908346054604460490B969461E089858
:101BE0008847AAF1010A0290BAF1000F3BDD029882
:101BF0002E2815D01021FFF732FD00282EDB4FF0E4
:101C0000010B0599014317D0B9F1000F0BDB4A46D0
:101C1000C117FFF7B8FF05430C43A9F1040905E01C
:101C2000012004900BE008B145F00105012005906A
:101C3000049820B9361D02E0049800B1361FB96936
:101C4000089808F101088847BBF1000FAAF1010AC2
:101C50000290C9D00999C1F80080C5E702987028A0
:101C600008D0502806D0F96908988847BBF1000FC2
:101C700014D04FE0002002900120BBF1000F04902F
:101C800009D0B969089808F101088847AAF1010943
:101C9000B9F1000F07DCF969089888476FF0010077
:101CA0000BB0BDE8F08F2B2804D02D280CD14FF0BD
:101CB000FF300490B969089808F101088847A9F134
:101CC0000109B9F1000FE6DD411CE4D00A21FFF75C
:101CD000C6FC0028DFDB029908F1010801EB810155
:101CE00000EB41000290B969089888470A21FFF784
:101CF000B6FC099AA9F10109B9F1000FC2F80080F8
:101D000001DD0028E7DAF969089888470499029804
:101D100000FB016655EA040004D004F040410900CC
:101D200002D006E0039898E0A40044EA9574AD0060
:101D3000B61E04F00041080002D16D196441761E00
:101D4000159810F0240F03D04FF00B095C4803E006
:101D50004FF028096FF07D008246564507DAAAEB5E
:101D600006018944B9F1410F01DD4FF0410901201D
:101D70000021A9F10102FFF706FF024628400B46A9
:101D80002140084301D0012100E00021501E0291B2
:101D900043F1FF3128402140084301D0012000E0F9
:101DA00000200299834651EA0B014FD000210846DA
:101DB0004FF00000039900F4400039B100EB8000BF
:101DC0004FF4400100EBD07001EA6000801501285B
:101DD00002DD4FF0FF3000E013D0401C36D00298F7
:101DE00060B3BBF1000F0CD14A4601200021FFF780
:101DF000CAFE28402140084301D0012000E0002015
:101E0000E0B101204A460021FFF7BDFE034640191C
:101E10000A4661412D1A8C4111D3B9F1400F09DDF9
:101E2000159810F0240F02D0AAF1340603E0AAF1AD
:101E3000170600E0761C00254FF0004406E05B1E0C
:101E400042F1FF3220EA030521EA0204CAF101004F
:101E5000B04206DA1B490398084301900020009025
:101E60000EE0039AC4F3D321E80A0A43164940EA74
:101E700044500A433146CDE90002684604F07CF93B
:101E8000159810F0240F0BD01598C00715D138689D
:101E9000DDE90012031D3B600068C0E900120CE0A0
:101EA00002A8694604F002F91598C00705D1386800
:101EB000029A011D3960006802604046F0E60000A9
:101EC00002FCFFFF0000F07F0000F03F2DE9FF4F14
:101ED00092461D4685B04FF00041DDE9124BDDE929
:101EE00014727F1E01EA4B50414940F0FF4940EA1D
:101EF0000108002122F020004928049102D04E2838
:101F000028D04CE03BA0012607C88DE80700A9694E
:101F10000698641C88477F1E014606D41DF80600FB
:101F200018B121F0200181420BD0E9690698884759
:101F3000032E34D0082E32D06FF0010009B0BDE876
:101F4000F08F761C032E01D0082EE0D1601CCAF859
:101F50000000DCE7A9690698641C88477F1E2AD424
:101F600020F02000412826D1A9690698641C8847E2
:101F70007F1E20D420F020004E281CD1A96906988D
:101F8000641C88477F1E48F4002849F48009CAF879
:101F9000004001D4282806D0E969069888475FEAFE
:101FA000CB7012D022E0A9690698641C88477F1E76
:101FB00001D4002803DAE96906988847BCE7292894
:101FC000F1D1641CCAF80040E9E71BF0240F07D0E8
:101FD00028680499031D2B600068C0E9001805E01B
:101FE0002868021D2A600068C0F800902046A5E716
:101FF0000000F07F494E46494E4954590000000008
:1020000001491820ABBEFEE7260002007047000021
:10201000FEE7000070470000014690F8210002280A
:1020200016D10868D1E90FC3026822F00E020260DF
:10203000026822F001020260012000FA03F2CCF8EB
:10204000042081F821000020002281F82020704720
:10205000042088630120002281F8202070470000BE
:1020600090F82110022923D1026840F2040C116873
:10207000C4F2020C21F00E01116013682F21C4F28A
:1020800002018A4223F00103136015DD3023C4F2FC
:1020900002039A421CD04423C4F202039A421BD08A
:1020A0005823C4F202039A421CD14FF4803321E03A
:1020B00004218163012070470823C4F202039A427D
:1020C0000ED01C23C4F202039A420BD1102311E05C
:1020D0004FF480730EE000BF4FF480530AE000BF5E
:1020E000012307E00CF168014FF080738A4208BFBA
:1020F0004FF480130121CCF8003080F82110416B9F
:102100000022002980F8202004BF0020704780B5FD
:102110008847002080BD0000B0B5044600F02CF9CF
:10212000054640F20000C2F200000078611C18BFB2
:10213000044400BF00F020F9401BA042FAD3B0BD18
:102140002DE9F04F82B00E68002E00F0FD8041F2C4
:102150000042C4F20102042340F2004E904208BF44
:1021600003234FF6FF7CC4F2010E009300240123E9
:10217000C1F2100C4FF0000A4FF000094BE000BF15
:1021800041F20002C4F20102009F904208BF022700
:1021900004F00C030F229A402BEA020207FA03F321
:1021A0004FEA9A051A4346F825204E6840F20C453E
:1021B000F202DEF8082054BF22EA080242EA0802CE
:1021C000C4F20105CEF808202A68B30254BF22EAFF
:1021D000080242EA08022A60B303DEF8042054BF72
:1021E00022EA080242EA0802F303CEF80420DEF8ED
:1021F00000204FF0010354BF22EA080242EA08021D
:10220000CEF800200E680AF1010A36FA0AF204F14B
:10221000040400F0998003FA0AFB16EA0B08F1D0D7
:102220004E68664512DC122E56D8DFE806F0350BF4
:102230004D49555555555555555555555555554572
:10224000510000BFD1F80C9046E000BF4FF6FF727E
:10225000C1F2210296420FDC0022C1F21102964225
:102260001AD00022C1F21202964215D00022C1F209
:102270002102964210D02FE00022C1F222029642A3
:102280000AD00022C1F23102964205D00022C1F2EA
:102290003202964220D100BF8A684AB1012A14BF97
:1022A000C0F814B0C0F810B04FF0080914E000BF37
:1022B0004FF0040910E000BFCA6802F104090BE006
:1022C0004FF0000908E000BFCA6802F1080903E006
:1022D000CA6802F10C0900BF02462646B8F5807FA5
:1022E00024BF0432203E17680F25B54027EA0505B4
:1022F00009FA06F635431560CA79D2067FF582AF32
:1023000041F21803C4F202031A68AEF57E7642F079
:1023100001021A601A6802F001020192019A2AF081
:10232000030256F802B040F60002C4F201029042E5
:1023300008D040F60042C4F2010290427FF420AF80
:10234000012725E7002723E702B0BDE8F08F000052
:102350008068084018BF012070470000C26802EA88
:102360000103914341EA034101617047002A08BF1C
:10237000090401617047000040F2C420C2F200006D
:1023800000687047002804BF01207047F0B581B095
:10239000044690F83D0028B9002084F83C0020460F
:1023A00000F090F9242084F83D002068016821F0B5
:1023B00001010160016841F400410160016821F4FC
:1023C0000041016000F048FB636848F2A16CC0F274
:1023D000010C40F60011C0F23D0163453CBF48F2DC
:1023E0008041C0F21E01884202D2012001B0F0BD3E
:1023F0004DF68361C4F21B31A0FB01122168970CDA
:10240000D1F804E04FF496762EF03F0545EA924568
:102410004D60774348F638160D6AC0F24106A7FBB7
:10242000067625F03F07634538BF960C721C3A4389
:102430000A62CA6948F2A0664CF6FF77C0F201064C
:10244000B34222EA07020BD801385B00B0FBF3F07D
:1024500001306FF31F30042898BF04201BE000BF39
:10246000A768013857B119277B43B0FBF3F001305F
:102470006FF31F3070B100F5804007E003EB4303BA
:10248000B0FBF3F001306FF31F3018B100F50040DE
:1024900001E000BF01201043C8610868D4E90723A8
:1024A00020F0C000104318430860886848F2FF32EB
:1024B00004F10C0790438CCF18431043A669886041
:1024C000C86820F0FF0038433043C860086840F017
:1024D0000100086000202021206484F83D10206362
:1024E00084F83E0001B0F0BD2DE9F04383B01E46F4
:1024F000174689460446FFF73FFF94F83D10202910
:1025000024D10546206800BF816989071AD5FFF7E5
:1025100033FF411B20681A29F6D381698907F3D557
:1025200000202021206384F83D1084F83E00216CB7
:1025300041F02001216484F83C00022003B0BDE892
:10254000F08300BF94F83C10012903D1022003B0AE
:10255000BDE8F083012184F83C100168C90703D16C
:10256000016841F001010160016840F2020821F4B4
:1025700000610160212184F83D10102184F83E1093
:102580000021216467626685618DC0F201082185A2
:10259000A8F10211E162E16A0A9E11F5803F18BFBD
:1025A00001291DD1016841F48071016020464FF07E
:1025B000011100223346009501F03CFC50B1206827
:1025C0000068C00544BF4FF400702064012003B0D0
:1025D000BDE8F0832069B0F5804F07D1FE2015E0FB
:1025E0000829DFD0216B1229DCD0DFE7062000EAC2
:1025F000D9102168F030086108F106012046324602
:102600002B4601F0FDFC0028E0D1FF20216800EA04
:10261000090008612046414632462B4601F0F0FC95
:102620000028D3D10020029020684169029180697E
:102630000290029806E000BF204631462A4601F08B
:102640009BFB18BB208D68B3204631462A4601F01B
:1026500043FDD8B9606A2168024612F8013B0B615C
:102660006262628D013A6285228D531E23854F6915
:102670007F07E1D51B04DFD0437802300B61606235
:10268000608D01386085901E2085D5E7206C042878
:102690009CD12068016841F400710160012003B001
:1026A000BDE8F0832068016841F4007101602020DA
:1026B00084F83D00002084F83E0084F83C0003B01C
:1026C000BDE8F08310B586B0016845F20040C4F261
:1026D000000081424FF00001CDE90411CDE9021163
:1026E00002D006B010BD00BF41F21804C4F20204CB
:1026F000216800F5384041F008012160216801F0AF
:10270000080101910199C021029112210391032135
:10271000059102A9FFF714FD606840F400106060A5
:10272000606800F400100190019806B010BD000030
:1027300040F2000040F2C421C2F20000C2F20001E7
:1027400000780A68104408607047000080B542F2C3
:102750000000C4F20200016841F010010160032092
:1027600000F08CF80F2000F005F800F027F80020AA
:1027700080BD000070B540F20006C2F2000640F2D3
:1027800008013278C2F200014FF47A730968B3FB92
:10279000F2F20446B1FBF2F1084600F085FB0F2C83
:1027A0004FF0010508D838B94FF0FF30214600221C
:1027B000002500F037F87460284670BD82B041F201
:1027C0001800C4F202000168022241F00101016018
:1027D000016801F0010101910199416841F08051C6
:1027E0004160406800F08050009000980420C4F2DE
:1027F0000100016862F31A61016002B070470000D5
:10280000002848BF704700F01F01012202FA01F1C1
:102810001C2202EAD0004EF20012CEF200028150D9
:102820007047000010B54EF60C5CCEF2000CDCF8E0
:102830000030C3F3022E8EF00704042C28BF0424BA
:10284000BEF103034FF0FF3E0EFA04F438BF00233D
:10285000A14399400EFA03F39A43114300F00F028B
:1028600000F160430901043A03F56443624400281F
:1028700048BF02F10C03197010BD00004EF60C5158
:10288000CEF200010A684FF6FF031A4060F30A22F5
:1028900042F0806040F0FD7008607047002804BF7F
:1028A000012070472DE9F04381B042F20008C4F2E4
:1028B00002080446D8F800000D4600F007008842E0
:1028C0000CD2D8F8000020F007002843C8F8000018
:1028D000D8F8000000F00700A8426CD1206841F24F
:1028E00004098107C4F2020917D5410705D5D9F8B3
:1028F000001041F4E061C9F80010010705D5D9F8CE
:10290000001041F46051C9F80010D9F80010A26815
:1029100021F0F0011143C9F80010C00742D1D8F8E6
:10292000000000F00700A8420CD9D8F8000020F001
:1029300007002843C8F80000D8F8000000F007009E
:10294000A84238D12068410707D5D9F80010E268BD
:1029500021F4E0611143C9F80010000708D5D9F847
:102960000000216920F4605040EAC100C9F800006D
:10297000D9F8002002F00C00082841F20020C0F233
:102980007A004DD146F61A53C2F38341C0F60003D4
:10299000595CD20338D440F60010C0F23D004843E1
:1029A0003EE000BF606859F8041C022808D00128E6
:1029B00026D1890306D4012001B0BDE8F08300BF11
:1029C0008901F8D5D9F8001021F003010843C9F8AE
:1029D0000000FFF7D1FC064641F28837D9F8000025
:1029E000616800F00C00B0EB810F98D0FFF7C4FCD9
:1029F000801BB842F2D9032001B0BDE8F08300BFCC
:102A00008907D8D5DEE700BFD9F8002046F618536D
:102A1000C2F34042C0F600039A5C4843B0FBF2F0B8
:102A2000D9F8001046F60052C1F30311C0F60002B7
:102A3000515C40F2080220FA01F140F20400C2F2B7
:102A400000000068C2F200021160FFF793FE002050
:102A500001B0BDE8F083000040F2080041F204013B
:102A6000C2F20000C4F202010068096846F6105282
:102A7000C1F30221C0F60002515CC840704700005B
:102A800040F2080041F20401C2F20000C4F2020167
:102A90000068096846F61052C1F3C221C0F6000270
:102AA000515CC84070470000002804BF01207047F7
:102AB0002DE9F04182B00446007841F20006C007DB
:102AC000C4F202060CD0706800F00C00042840F03C
:102AD00081803068800303D56068002800F046815B
:102AE000207880071BD5706810F00C0F09D0706833
:102AF00000F00C00082840F087807068C00300F1E7
:102B000083803068800703D52069012840F02E813A
:102B10003068616920F0F80040EAC1003060207838
:102B2000000713D4207840072CD4E569002D00F06D
:102B30001881706800F00C00082840F0A780012D73
:102B400040F00481012002B0BDE8F081A0690028B6
:102B500000F084800020C4F242200121C0F88014DB
:102B6000FFF70AFC054600BF706A800700F1B280DB
:102B7000FFF702FC401B0228F6D9032002B0BDE893
:102B8000F08100BFF0695FEAC00808D4F06940F046
:102B90008050F061F06900F080500090009847F29A
:102BA0000007C4F200073868C00549D4386840F40B
:102BB00080703860FFF7E0FB054600BF3868C0054D
:102BC0003ED4FFF7D9FB401B6428F7D9032002B09D
:102BD000BDE8F081706800F00C00082803D170682F
:102BE000C0033FF576AF61683068002900F00C81C2
:102BF000B1F5A02F00F00081B1F5803F40F01A81BF
:102C000040F480301CE100BF2069002840F2000041
:102C1000C4F2422000F0888001210160FFF7ACFB84
:102C2000054600BF306880073FF572AFFFF7A4FB91
:102C3000401B0228F6D9032002B0BDE8F08100BF96
:102C4000E168306A002900F09D80052900F092803B
:102C5000012940F0AF8040F00100B1E00020C4F253
:102C600042200021C0F88014FFF786FB054600BF14
:102C7000706A80077FF556AFFFF77EFB401B022886
:102C8000F6D9032002B0BDE8F08100BF0027C4F2EE
:102C9000422700203866FFF76FFB022D05460DD155
:102CA0003068800140F1DE80FFF766FB401B0228A0
:102CB0004FF00300F4D902B0BDE8F0813068800124
:102CC0004FD5FFF759FB401B02284FF00300F5D901
:102CD000F1E700BF40F20800C2F20000006844F6CD
:102CE000D351C1F26201A0FB0101480A019000BF6B
:102CF00000BF0198411E002801913FF413AF00BFAF
:102D00000198411E002801913FF40CAF00BF0198CB
:102D1000411E002801913FF405AF00BF0198411EFC
:102D200000280191E4D1FDE600210160FFF724FBBA
:102D3000054600BF306880077FF5F1AEFFF71CFB4A
:102D4000401B02284FF00300F4D9B4E77068216AF1
:102D500000F480328A4209D1616A00F4701088421E
:102D600004D1002002B0BDE8F08100BF012002B014
:102D7000BDE8F08140F004003062306A40F00100AC
:102D80001EE000BF20F001003062306A20F0040035
:102D90003062FFF7F1FA054641F28837306A800762
:102DA00020D5FFF7E9FA401BB8424FF00300F5D9F0
:102DB00081E700BF20F001003062306A20F004009B
:102DC0003062FFF7D9FA054641F28837306A80074A
:102DD00008D4FFF7D1FA401BB842F7D9032002B05C
:102DE000BDE8F081B8F1000F3FF59FAEF06920F02B
:102DF0008050F06199E600BF40F480203060306878
:102E000040F480301CE000BF20F480303060306837
:102E100020F480203060FFF7AFFA05463068800369
:102E20007FF55EAEFFF7A8FA401B64284FF0030061
:102E3000F4D940E720F480303060306820F48020FE
:102E40003060FFF799FA0546306880033FF548AED9
:102E5000FFF792FA401B6428F6D9032002B0BDE8C0
:102E6000F08100BF206AB0F5803F05D17168A2688B
:102E700021F40031114371607168626A21F47411A8
:102E800011430843706001203866FFF775FA044665
:102E9000306880013FF565AFFFF76EFA001B02282E
:102EA0004FF00300F4D906E7411E0020B0EB116F8C
:102EB0001CBF012070474EF21002CEF2000251609A
:102EC0004EF62351CEF20001F0230B7007219060E3
:102ED0001160704790F83C20012A4FF0020236D072
:102EE00010B580F83D200268D2F804E0D2F808C09E
:102EF0000C682EF07003234340F2FF74C4F2000408
:102F0000A24253600ADCB2F1804F13D040F200437A
:102F1000C4F200039A420DD011E000BF42F6004314
:102F2000C4F201039A4205D040F60003C4F2000344
:102F30009A4204D149682CF0800319439160012121
:102F4000002280F83D1080F83C20BDE8104010467B
:102F500070470000002804BF0120704710B590F8AA
:102F60003D1031B9002180F83C10044600F068F8AB
:102F70002046022180F83D10016840F2FF740B6882
:102F8000C4F2000442F6004CA142C4F2010C15DC6C
:102F9000B1F1804F1AD040F20042C4F200029142D7
:102FA00014D0A14218DCB1F1804F1DD040F2004294
:102FB000C4F20002914217D01AE000BF614505D06B
:102FC00040F60002C4F200029142EAD1826823F086
:102FD00070031343A142E6DD614505D040F60002CF
:102FE000C4F20002914203D1026923F440731343F7
:102FF000846923F08002D0F804E0C368224361456D
:103000000A60CB62C1F828E002D14269CCF83020D6
:1030100001224A6180F8462080F83E2080F83F2057
:1030200080F8402080F8412080F8422080F843203A
:1030300080F8442080F8452080F83D20002010BD15
:103040000068B0F1804F18BF704781B041F21C009A
:10305000C4F20200016841F001010160006800F063
:1030600001000090009801B07047000090F83D10FA
:1030700001291CBF01207047022180F83D10006823
:1030800040F2FF71C4F20001884209DCB0F1804FC8
:1030900012D040F20041C4F2000188420CD012E08C
:1030A00042F60041C4F20101884205D040F6000119
:1030B000C4F20001884206D1816801F007010629A7
:1030C00004BF00207047016841F001010160002049
:1030D000704700000146006841F21113026A1A426B
:1030E00004D00122002081F83D207047026A40F29E
:1030F00044431A42F5D1026822F001020260012223
:10310000002081F83D20704790F83C20012A4FF0C4
:1031100002026CD080B580F83D20D0F800C04FF698
:103120007772DCF8083023EA0202CCF808200B683A
:103130004F2B29DC1F2B45DD202B46D0302B44D0D4
:10314000402B40F0AF80D1F804E0C968DCF82030B3
:10315000DCF8202022F00102CCF82020DCF8182036
:1031600022F0F00242EA011123F00A0242EA0E02C2
:10317000CCF81810CCF82020DCF8081041F04701FA
:1031800021F0300128E000BF6F2B33DDB3F5005F85
:1031900074D0B3F5805F21D0702B40F08380D1E9EB
:1031A00001E3C968DCF8082043EA0E0322F47F42F9
:1031B00043EA01211143CCF80810DCF8081041F073
:1031C000770109E00BB1102B6CD1DCF8081021F06D
:1031D0007001194341F00701CCF8081000220121C9
:1031E00080F83D10002180F83C10BDE8804010467A
:1031F000704700BF502B21D0602B53D1D1F804E091
:10320000C968DCF82030DCF8202022F01002CCF86D
:103210002020DCF8182022F4704242EA013123F029
:10322000A00242EA0E12CCF81810CCF82020DCF8EC
:10323000081041F0670121F01001CDE7D1F804E05A
:10324000C968DCF82030DCF8202022F00102CCF83C
:103250002020DCF8182022F0F00242EA011123F0CD
:103260000A0242EA0E02CCF81810CCF82020DCF852
:10327000081041F0570121F02001ADE7D1E901E349
:10328000C968DCF8082043EA0E0322F47F4243EACF
:1032900001211143CCF80810DCF8081041F48041FA
:1032A0009AE700BF01229AE77047000070470000CC
:1032B000B0B582B001680A68CC684B6902F02F058E
:1032C000202D04F0200505D125B102B0BDE8B040A5
:1032D00000F072BF5FEA027C1EBF03F0010E04F42F
:1032E000907313EB0E0341D1036BD50618D5012B58
:1032F00016D114F0100313D0002201920A68019233
:103300004A680192019A496949064BD4818DC28D60
:10331000C38D002B18BF914240F0F48102B0B0BDC4
:1033200013062DD514F080032AD090F84120212ACD
:10333000F4D18268B2F5805F03D10269002A00F0FF
:103340006782026A531C036212784A60C28C013A97
:103350001304C284E2D1C86820F08000C860C86845
:1033600040F04000C86002B0B0BD00BFD30718BF36
:1033700014F4807340F0D080530700F1D380D8E07C
:103380005206CBD514F04002C8D0CA6822F04002E1
:10339000CA60202180F8411002B0BDE8B04000F0C2
:1033A000E7BC00BFC16B0A68526893B2002BB5D06E
:1033B000858DAB42B2D2C2858969202900F0A180F7
:1033C000016851E8031F026821F4807142E8031389
:1033D000DBB1016851E8031F026821F4807142E803
:1033E000031393B1016851E8031F026821F480714F
:1033F00042E803134BB1016851E8031F026821F44E
:10340000807142E80313002BDAD1016851E8051FEF
:10341000026821F0010142E80513C3B3016851E8D5
:10342000051F026821F0010142E805137BB3016822
:1034300051E8051F026821F0010142E8051333B38A
:10344000016851E8051F026821F0010142E80513F7
:10345000002BDAD11BE000BF016851E8051F0268AC
:1034600021F0400142E80513DBB1016851E8051F76
:10347000026821F0400142E8051393B1016851E868
:10348000051F026821F0400142E805134BB10168B5
:1034900051E8051F026821F0400142E80513002BA6
:1034A000DAD1202180F8421000210163016851E83F
:1034B000031F026821F0100142E80313DBB1016829
:1034C00051E8031F026821F0100142E8031393B191
:1034D000016851E8031F026821F0100142E803135C
:1034E0004BB1016851E8031F026821F0100142E866
:1034F0000313002BDAD1C16B04460846FEF78CFD9E
:10350000204602214163818DC28D891A89B202B0A1
:10351000BDE8B040FFF7C8BE436C43F0010343640D
:10352000530706D5BEF1000F03D0436C43F00203EE
:103530004364930706D5BEF1000F03D0436C43F0FC
:1035400004034364BCF1000F06D55EEA050303D013
:10355000436C43F008034364436C002B3FF4DEAE3E
:10356000920605D525B1044600F026FE21682046C6
:103570004969426C01F0400102F00802891800F02C
:10358000B98000BF016851E8031F026821F49071FF
:1035900042E80313BBB3016851E8031F026821F43A
:1035A000907142E8031373B3016851E8031F026886
:1035B00021F4907142E803132BB3016851E8031F13
:1035C000026821F4907142E80313002BDAD11AE06B
:1035D000016851E8051F026821F0010142E8051366
:1035E000DBB1016851E8051F026821F0010142E8E2
:1035F000051393B1016851E8051F026821F001012C
:1036000042E805134BB1016851E8051F026821F03B
:10361000010142E80513002BDAD1016B012924D105
:10362000016851E8031F026821F0100142E803130A
:10363000DBB1016851E8031F026821F0100142E884
:10364000031393B1016851E8031F026821F01001D0
:1036500042E803134BB1016851E8031F026821F0EF
:10366000100142E80313002BDAD1202180F8421028
:103670000021016301684969490640F1C38001687E
:1036800051E8051F026821F0400142E80513DBB153
:10369000016851E8051F026821F0400142E8051366
:1036A00093B1016851E8051F026821F0400142E82A
:1036B00005134BB1016851E8051F026821F0400174
:1036C00042E80513002BDAD1C16B002900F09A8083
:1036D00044F2AD12C0F60002044608464A63FEF703
:1036E000BFFC00283FF41AAEE06B416B02B0BDE8AE
:1036F000B04008470446FFF7D9FD0020606402B0DF
:10370000B0BD00BF891A00BF026852E8032F0368EA
:1037100022F4907243E80325BDB3026852E8032FF8
:10372000036822F4907243E8032575B3026852E8F7
:10373000032F036822F4907243E803252DB3026837
:1037400052E8032F036822F4907243E80325002D0A
:10375000DAD11AE0026852E8052F036822F001026C
:1037600043E80525DDB1026852E8052F036822F021
:10377000010243E8052595B1026852E8052F036868
:1037800022F0010243E805254DB1026852E8052FF9
:10379000036822F0010243E80525002DDAD120223A
:1037A00080F8422000220263026852E8032F036877
:1037B00022F0100243E80325DDB1026852E8032F2E
:1037C000036822F0100243E8032595B1026852E82D
:1037D000032F036822F0100243E803254DB102686D
:1037E00052E8032F036822F0100243E80325002D5E
:1037F000DAD1022289B2426302B0BDE8B040FFF7DD
:1038000053BD00BF02B0BDE8B040FFF74FBD00BFE1
:10381000026A32F8023B6FF35F234B60026295E568
:10382000002804BF0120704710B5044690F84100FD
:1038300028B9002084F84000204600F063F82420D6
:1038400084F841002068D4E90212C36823F40053CD
:10385000C360036923F440531A430261D4E904238B
:103860001143C268194341F20C639A431143C1608A
:103870004169A26921F44071114343F60002C4F288
:1038800001029042416103D0FFF7E6F802E000BF79
:10389000FFF7F6F8D4E90023192148439900B0FB5B
:1038A000F1F048F21F5CC5F2EB1CA0FB0C314FF6A7
:1038B0009C734909C0F6FF7301FB0300322303EB3D
:1038C0000010A0FB0C03F02000EA531000EB0110E5
:1038D000C3F34311084490601069202120F4904004
:1038E0001061506920F02A005061D06840F4005007
:1038F000D0600020606484F8411084F84210606356
:1039000010BD000070B586B0006844F20041C4F2FA
:103910000001002688420596CDE90366029677D01D
:1039200044F60001C4F20001884241D043F6000190
:10393000C4F20101884240F0988041F21800C4F2BC
:103940000200016840F6000441F480410160016812
:10395000C4F2010401F4804101910199016802ADB2
:1039600041F0040101600068294600F00400019064
:1039700001984FF4007002900220039003200590FC
:103980002046FEF7DDFB4FF4806002900020CDE979
:10399000030020462946FEF7D3FB25200121002203
:1039A000FEF740FF2520FEF72BFF06B070BD00BFDD
:1039B00041F21800C4F20200416802AD41F48021D6
:1039C0004160416801F4802101910199016841F051
:1039D000080101600068294600F008000190019884
:1039E0004FF480600290022003900320059040F67F
:1039F0000000C4F2010000F580642046FEF7A0FB41
:103A00004FF4006002900020CDE9030029E000BFE0
:103A100041F21800C4F20200416840F6000441F48B
:103A2000003141604168C4F2010401F400310191A8
:103A30000199016802AD41F0040101600068294666
:103A400000F00400019001980420029002200390ED
:103A5000032005902046FEF773FB0820CDE90206FF
:103A6000049620462946FEF76BFB06B070BD0000A9
:103A700090F84230202B07D100294FF0010318BFE6
:103A8000002A05D11846704702231846704700BF28
:103A900000230363816222218285C285436480F80A
:103AA00042100169006819B1C16841F48071C160B8
:103AB000416941F001014161C16841F02001C160EB
:103AC0001846704740F2E811C2F200010068096828
:103AD000884218BF704710B540F27004C2F200046B
:103AE000207801F065FE40F2E810C2F200002146A5
:103AF0000122BDE81040FFF7BBBF00002DE9F043F5
:103B000081B0044690F84100202809D18846002958
:103B10004FF0010018BF002A06D101B0BDE8F083C4
:103B2000022001B0BDE8F0830020606421201D4622
:103B300084F841001646FEF71FFCA684E684A168BF
:103B40000646B1F5805F03D12069002800F094801B
:103B500047464FF00008E18C2068002900F0928071
:103B600005F101090BE000BF47B317F8011B4160E5
:103B7000E18C0139E184E18C002900F08380016847
:103B80000906F1D4B9F1000F0AD0EDB1FEF7F4FB4C
:103B9000801BA84218D8206801680906F6D5E3E71B
:103BA00001680906E0D4016809065CBF01685FEAA4
:103BB0000161D9D401680906F2D5D5E738F8021BAE
:103BC00000276FF35F21D2E7206850E8030F2168D8
:103BD00020F4D07041E80302BAB3206850E8030F24
:103BE000216820F4D07041E8030272B3206850E8E5
:103BF000030F216820F4D07041E803022AB3206843
:103C000050E8030F216820F4D07041E80302002A35
:103C1000DAD11AE0206850E8050F216820F0010091
:103C200041E80502DAB1206850E8050F216820F06C
:103C3000010041E8050292B1206850E8050F2168B3
:103C400020F0010041E805024AB1206850E8050F64
:103C5000216820F0010041E80502002ADAD1202085
:103C600084F8410084F84200002084F840000320DA
:103C700001B0BDE8F08300BF0027E18C2068002977
:103C80007FF46EAF016849060FD4F5B1691C17D1F6
:103C90000168490609D4016849065CBF01685FEA0A
:103CA000416102D401684906F2D5202084F8410020
:103CB000002001B0BDE8F083206800684006F4D41D
:103CC000FEF75AFB801BA842F6D9206850E8030F84
:103CD000216820F4D07041E80302EAB3206850E87C
:103CE000030F216820F4D07041E80302A2B32068DA
:103CF00050E8030F216820F4D07041E803025AB362
:103D0000206850E8030F216820F4D07041E80302D6
:103D1000002ADAD120E000BF206850E8050F2168B2
:103D200020F0010041E80502002A98D0206850E800
:103D3000050F216820F0010041E80502002A3FF448
:103D40008EAF206850E8050F216820F0010041E89F
:103D50000502002A3FF483AF206850E8050F216870
:103D600020F0010041E80502002AD5D177E70000E4
:103D700070470000FEE7000070B50368044653F882
:103D8000140F400711D40E46481C29D086BB00BF33
:103D90001868400527D4FEF7EFFA236853F8140F8C
:103DA000400737D518684007F2D5002070BD00BF26
:103DB00018684007F9D41868400514D418684007FB
:103DC000F3D4186840050ED418684007EDD418687D
:103DD000400508D4186840074FF0000048BF70BD88
:103DE00018684005E4D56FF480601860042012E084
:103DF000154603E053F8140F4007D6D41868400561
:103E0000F1D4FEF7B9FA401B2368B042F2D95869E1
:103E10004007EFD4202000212022216384F83D2098
:103E200084F83E10226C10432064012084F83C107A
:103E300070BD00002DE9F041054600681E4614469D
:103E400001F47F0201338FB242D0DDF81880B2F561
:103E5000803F40F0878040693840C01BB0FA80F056
:103E60004009A04240F0C8804EB924E04069384083
:103E7000C01BB0FA80F04009A04240F0BD80FEF7C0
:103E80007BFAA0EB08012868B142EFD941693940BB
:103E9000C91BB1FA81F14909A142E7D19BE000BFFA
:103EA00040693840C01BB0FA80F04009A0424FF092
:103EB000000040F0A280FEF75FFA286841693940AF
:103EC000C91BB1FA81F14909A142E9D183E000BFE0
:103ED000B2F5803F24D100BF41693940C91BB1FA16
:103EE00081F14909A14240F0878041693940C91BED
:103EF000B1FA81F14909A14240F07E80416939401F
:103F0000C91BB1FA81F14909A14275D14169394012
:103F1000C91BB1FA81F14909A142DDD06CE000BFB3
:103F200081693940C91BB1FA81F14909A14263D1C4
:103F300081693940C91BB1FA81F14909A1425BD1BC
:103F400081693940C91BB1FA81F14909A14253D1B4
:103F500081693940C91BB1FA81F14909A142DFD019
:103F60004AE000BF80693840C01BB0FA80F04009C9
:103F7000A04241D146B923E080693840C01BB0FA65
:103F800080F04009A04237D1FEF7F6F9A0EB080116
:103F90002868B142F0D981693940C91BB1FA81F171
:103FA0004909A142E8D116E080693840C01BB0FA47
:103FB00080F04009A0424FF0000018BFBDE8F0813A
:103FC000FEF7DAF9286881693940C91BB1FA81F135
:103FD0004909A142E8D100202021286385F83D103D
:103FE00085F83E00296C41F02001296485F83C00E9
:103FF0000120BDE8F08100BF0020BDE8F081000095
:10400000F0B581B0044600681D4643698FB203EAEB
:104010000701B94202D1002001B0F0BD4169164646
:1040200001323CD0490512D47EB300BFFEF7A4F99B
:10403000411B2068B14203D941693940B9422BD1B3
:1040400041693940B942E6D041694905EED5016878
:1040500041F4007101606FF480614161042000212E
:104060002022216384F83D2084F83E10226C104306
:10407000206484F83C10012001B0F0BD4169394052
:10408000B942C8D041694905E1D4FEF775F9206805
:1040900041693940B942F1D02020E0E74169490542
:1040A000D5D441693940B942B5D041694905CED42A
:1040B00041693940B942AED041694905C7D4416927
:1040C0003940B942A7D041694905C0D44169394056
:1040D000B942E3D19FE7000070B50368044653F886
:1040E000140F000611D40E46481C29D086BB00BF11
:1040F0001868400527D4FEF73FF9236853F8140FDA
:10410000000637D518680006F2D5002070BD00BF44
:1041100018680006F9D41868400514D41868000619
:10412000F3D4186840050ED418680006EDD418685A
:10413000400508D4186800064FF0000048BF70BD65
:1041400018684005E4D56FF480601860042012E020
:10415000154603E053F8140F0006D6D4186840053E
:10416000F1D4FEF709F9401B2368B042F2D958692F
:104170000006EFD4202000212022216384F83D2076
:1041800084F83E10226C10432064012084F83C1017
:1041900070BD0000FEE70000FEE700007047000071
:1041A00070470000FEF7C4BA70470000406A002163
:1041B000C185C184FFF77AB881B090F842102229F6
:1041C00021D183680246B3F5805F09D152F8281FD8
:1041D00052F8183C002B63D003685B680AE000BF0C
:1041E00052F8281F13B90369002BF5D003685B68E8
:1041F00003F07F030B70116801311160C18D01392B
:104200000A04C18502D001B0704700BF0168CA68C6
:1042100022F02002CA60CA6822F48072CA604A6929
:1042200022F001024A61202180F8421000214163FE
:10423000026B012A3CD10163016851E8031F026847
:1042400021F0100142E80313DBB1016851E8031FBC
:10425000026821F0100142E8031393B1016851E8AC
:10426000031F026821F0100142E803134BB10168FB
:1042700051E8031F026821F0100142E80313002BEC
:10428000DAD101680A68D20606D5002200920A68CF
:104290000092496800910099818D01B0FFF704B840
:1042A000026852686FF35F2221F8022B8162A5E752
:1042B00001B0FFF707BC000040F2E810C2F20000B6
:1042C000FEF7F6BFFEE70000B0B504460D4688696C
:1042D000E16902F007FB48BB6869A16902F010FBC5
:1042E00020B340F2D4052069A18A94F82020C2F2BC
:1042F00000050123AB70FEF739F894F8200018B3DD
:10430000FEF73AF8E968401A642838BFB0BDFEF7F6
:1043100033F82268A188E8601046FEF71FF8A0680D
:10432000A189BDE8B040FEF719B800BF40F2D40340
:10433000C2F2000300252069A18A01229D70BDE818
:10434000B040FEF713B800BF2068A1880022FEF736
:104350000DF8A068A1890022BDE8B040FEF706B8BC
:10436000B0B50C4606A10546FCF7D9F8002808BFF1
:10437000B0BD28462146BDE8B04000F071BB00BF8B
:1043800069643A6E6F64653200000000B0B584B0B5
:10439000044601604FF67E70C3F60670CDF8060045
:1043A0000020CFF6026015460A46CDF80A004EF608
:1043B000BA70ADF80E000DF1060110460A224FF05A
:1043C000FF33FFF79BFB6420FDF7A6FE4FF67E71DF
:1043D0004FF6F560C0F20661401BCDF806100021D3
:1043E000ADF80A10010A8DF80D108DF80E00EF21BE
:1043F00020688DF80F100DF106010A224FF0FF33EF
:104400008DF80C50FFF77AFB6420FDF785FE04B0B1
:10441000B0BD000080B584B0CBB24FF6F86203EBBC
:104420001123CFF6FF72D21A4FF67E734FEA112C8A
:10443000C0F206338DF80C10110ACDF806300023B7
:104440008DF80D10EF2100688DF80A308DF80E20E0
:104450008DF80F100DF106010A224FF0FF338DF891
:104460000BC0FFF74BFB6420FDF756FE04B080BD88
:104470002DE9F04704464068218900220025FDF718
:1044800075FF206801684D62FEF7F0FD2068016845
:104490004A6AD2087C2A0BD84A6AD2087C2A07D8F2
:1044A0004A6AD2087C2A03D84A6AB2F57A7FEFD3E7
:1044B000FEF710FE2068002201684A62FEF7D6FD72
:1044C000206801684A6AD2087C2A0BD84A6AD20856
:1044D0007C2A07D84A6AD2087C2A03D84A6AB2F5ED
:1044E0007A7FEFD3FEF7F6FD2068002201684A626A
:1044F000FEF7BCFD206801684A6AD2087C2A0BD806
:104500004A6AD2087C2A07D84A6AD2087C2A03D889
:104510004A6AB2F57A7FEFD3FEF7DCFD206800220D
:1045200001684A62FEF7A2FD206801684A6AD20863
:104530007C2A0BD84A6AD2087C2A07D84A6AD20851
:104540007C2A03D84A6AB2F57A7FEFD3FEF7C2FD20
:104550002068002201684A62FEF788FD2068016831
:104560004A6AD2087C2A0BD84A6AD2087C2A07D821
:104570004A6AD2087C2A03D84A6AB2F57A7FEFD316
:10458000FEF7A8FD2068002201684A62FEF76EFD72
:10459000206801684A6AD2087C2A0BD84A6AD20885
:1045A0007C2A07D84A6AD2087C2A03D84A6AB2F51C
:1045B0007A7FEFD3FEF78EFD2068002201684A6201
:1045C000FEF754FD206801684A6AD2087C2A0BD89D
:1045D0004A6AD2087C2A07D84A6AD2087C2A03D8B9
:1045E0004A6AB2F57A7FEFD3FEF774FD20680022A5
:1045F00001684A62FEF73AFD206801684A6AD208FB
:104600007C2A0BD84A6AD2087C2A07D84A6AD20880
:104610007C2A03D84A6AB2F57A7FEFD3FEF75AFDB7
:104620002068002201684A62FEF720FD20680168C8
:104630004A6AD2087C2A0BD84A6AD2087C2A07D850
:104640004A6AD2087C2A03D84A6AB2F57A7FEFD345
:10465000FEF740FD2068002201684A62FEF706FD71
:10466000206801684A6AD2087C2A0BD84A6AD208B4
:104670007C2A07D84A6AD2087C2A03D84A6AB2F54B
:104680007A7FEFD3FEF726FD2068002201684A6298
:10469000FEF7ECFC206801684A6AD2087C2A0BD835
:1046A0004A6AD2087C2A07D84A6AD2087C2A03D8E8
:1046B0004A6AB2F57A7FEFD3FEF70CFD206800223C
:1046C00001684A62FEF7D2FC206801684A6AD20893
:1046D0007C2A0BD84A6AD2087C2A07D84A6AD208B0
:1046E0007C2A03D84A6AB2F57A7FEFD3FEF7F2FC50
:1046F0002068002201684A62FEF7B8FC2068016861
:104700004A6AD2087C2A0BD84A6AD2087C2A07D87F
:104710004A6AD2087C2A03D84A6AB2F57A7FEFD374
:10472000FEF7D8FC2068002201684A62FEF79EFC72
:10473000206801684A6AD2087C2A0BD84A6AD208E3
:104740007C2A07D84A6AD2087C2A03D84A6AB2F57A
:104750007A7FEFD3FEF7BEFC2068002201684A6230
:10476000FEF784FC206801684A6AD2087C2A0BD8CC
:104770004A6AD2087C2A07D84A6AD2087C2A03D817
:104780004A6AB2F57A7FEFD3FEF7A4FC20680022D4
:1047900001684A62FEF76AFC206801684A6AD2082A
:1047A0007C2A0BD84A6AD2087C2A07D84A6AD208DF
:1047B0007C2A03D84A6AB2F57A7FEFD3FEF78AFCE7
:1047C0002068002201684A62FEF750FC20680168F8
:1047D0004A6AD2087C2A0BD84A6AD2087C2A07D8AF
:1047E0004A6AD2087C2A03D84A6AB2F57A7FEFD3A4
:1047F000FEF770FC2068002201684A62FEF736FC72
:10480000206801684A6AD2087C2A0BD84A6AD20812
:104810007C2A07D84A6AD2087C2A03D84A6AB2F5A9
:104820007A7FEFD3FEF756FC2068002201684A62C7
:10483000FEF71CFC206801684A6AD2087C2A0BD863
:104840004A6AD2087C2A07D84A6AD2087C2A03D846
:104850004A6AB2F57A7FEFD3FEF73CFC206800226B
:1048600001684A62FEF702FC206801684A6AD208C1
:104870007C2A0BD84A6AD2087C2A07D84A6AD2080E
:104880007C2A03D84A6AB2F57A7FEFD3FEF722FC7E
:10489000606821890122FDF769FD20680022016816
:1048A0004A62FEF7E3FB00BF206801684A6A092AF2
:1048B0000AD860682189FDF74BFD0028F4D02068F4
:1048C000FEF708FC206801684A6A40F2C229C2F279
:1048D0000009A9F8002000224A62FEF7C7FB00BFCA
:1048E000206801684A6A2C2A0AD860682189FDF785
:1048F0002FFD0028F4D12068FEF7ECFB206801684A
:104900004A6AA9F8002000224A62FEF7AFFB00BF06
:10491000206801684A6A592A0AD860682189FDF727
:1049200017FD0028F4D02068FEF7D4FB206801684A
:104930004A6AA9F8002000224A62FEF797FB00BFEE
:10494000206801684A6A5E2A0AD860682189FDF7F2
:10495000FFFC0028F4D12068FEF7BCFB206801684A
:10496000496A4FF0000A274647F80AAF00254FF082
:104970000008A9F8001087F804A000BF002615E081
:104980002068FEF7A7FB20680168496AA9F80010B3
:10499000795D49007955B9F800202E2A24BF41F0ED
:1049A00001017955072E06F1010629D20168C1F8E7
:1049B00024A0FEF75BFB00BF206801684A6A402A1A
:1049C0000AD860682189FDF7C3FC0028F4D020686C
:1049D000FEF780FB206801684A6AA9F80020C1F848
:1049E00024A0FEF743FB00BF206801684A6A4F2AF3
:1049F000CBD860682189FDF7ABFC0028F4D1BFE774
:104A0000042D03D088440135B8E700BFA07B5FFACE
:104A100088F181421CBF0020BDE8F0876089A18930
:104A200040BA4DBA01F040FE0026C4F2240600222E
:104A3000334601F0A1FC01F059FC6061284601F009
:104A400033FE0022334601F097FC01F04FFCA061D9
:104A50000120BDE8F0870000C0E900120381704723
:104A60002DE9F04F81B08B463B210746FBF74DFD0A
:104A7000002841D0054600240FF2840A0FF2900965
:104A80000FF29C080EE000BF304601F087FB01F0FA
:104A90002DFCCBF81C006F1C38463B21FBF735FD85
:104AA000054648B338463A212C70FBF72EFD002806
:104AB000F1D006463846514606F8014BFBF760FD3B
:104AC0000028E1D038464946FBF75AFD60B1384628
:104AD0004146FBF755FD0028DDD13046FBF708FDC8
:104AE0008BF82000D7E700BF304601F057FB01F0FC
:104AF000FDFBCBF81800CEE701B0BDE8F08F00BF9A
:104B000074656D707468726573686F6C6400000022
:104B100068756D69647468726573686F6C640000B1
:104B200062757A7A657273746174656E6F646532EA
:104B300000000000F0B581B004460D468869E169C7
:104B4000164601F0DDFE40F2D407C2F2000708B1BC
:104B5000002014E0FDF710FC7968401A642807D3A0
:104B6000FDF70AFC2268A18878601046FDF7F6FB85
:104B7000387828B930460321FFF74CFC0120387003
:104B80006869A16901F0BCFE10B1002015E000BF0A
:104B9000FDF7F2FBB968401A642807D3FDF7ECFB78
:104BA000A268A189B8601046FDF7D8FB787828B9CB
:104BB00030460421FFF72EFC01207870204629465C
:104BC000FFF782FBA869E16901F08CFE20B920683B
:104BD000A1880022FDF7CAFB6869A16901F082FE85
:104BE00000281CBF01B0F0BDA068A189002201B05F
:104BF000BDE8F040FDF7BABB10B5DDF810C0DDE947
:104C0000024E0160828083608481C0F810E0A0F8C9
:104C100014C010BD80B582B0417A436841F00402EF
:104C20008DF8042041F014028DF805108DF806204F
:104C300041F0100201788DF807204FF0640C01AAB2
:104C400018460423CDF800C0FDF74EFC0120FDF707
:104C500063FA02B080BD00002DE9F04184B0044643
:104C600015463020627A00EAC100403042F0040369
:104C700043EA000710438DF8090043EAC1108DF89C
:104C80000A0042EAC112606821788DF80B204FF0CB
:104C9000640802AA04238DF80870CDF80080FDF79F
:104CA00023FC2878617A20F00F0241F0050341F0DF
:104CB000010143EA02060A438DF80D2043EA00127F
:104CC0008DF80C608DF80E2041EA001260682178A2
:104CD00003AE8DF80F2032460423CDF80080FDF797
:104CE00003FC6878617A20F00F0241F0050341F07F
:104CF000010143EA02070A438DF80D2043EA00123E
:104D00008DF80E2041EA0012606821788DF80F209E
:104D1000324604238DF80C70CDF80080FDF7E4FBDB
:104D2000A878617A20F00F0241F0050341F00101FB
:104D300043EA02070A438DF80D2043EA00128DF87A
:104D40000E2041EA0012606821788DF80F2032466B
:104D500004238DF80C70CDF80080FDF7C5FBE878D2
:104D6000617A20F00F0241F0050341F0010143EAAE
:104D700002070A438DF80D2043EA00128DF80E2039
:104D800041EA0012606821788DF80F203246042332
:104D90008DF80C70CDF80080FDF7A6FB2879617ABC
:104DA00020F00F0241F0050341F0010143EA020740
:104DB0000A438DF80D2043EA00128DF80E2041EAD7
:104DC0000012606821788DF80F20324604238DF898
:104DD0000C70CDF80080FDF787FB6879617A20F0D0
:104DE0000F0241F0050341F0010143EA02070A43C3
:104DF0008DF80D2043EA00128DF80E2041EA0012D2
:104E0000606821788DF80F20324604238DF80C70ED
:104E1000CDF80080FDF768FBA879617A20F00F02D9
:104E200041F0050341F0010143EA02070A438DF80E
:104E30000D2043EA00128DF80E2041EA001260684E
:104E400021788DF80F20324604238DF80C70CDF8B0
:104E50000080FDF749FBE879617A20F00F0241F00C
:104E6000050341F0010143EA02070A438DF80D20D2
:104E700043EA00128DF80E2041EA001260682178A2
:104E80008DF80F20324604238DF80C70CDF8008089
:104E9000FDF72AFB04B0BDE8F0810000F0B587B053
:104EA00040F2C026C2F2000632780D4604466AB9C6
:104EB0000020059040F60E20C0F20E00049004AAD7
:104EC00020460021FFF7C8FE01203070AE690021A6
:104ED000CCF22021304601F013FD002850D10021F2
:104EE000C4F2A021304601F0F6FC002848D16F69D9
:104EF0000021384601F004FD002841D10021C4F210
:104F0000C821384601F0F5FCD0B3304601F0AAFCC8
:104F100046F62C57C0F6000704AE02460B46304654
:104F20003946FBF7CFF9686901F09CFC0DF10605E5
:104F300002460B4628463946FBF7C4F920460021B5
:104F4000002200F0D3F915A12046324600F060F9A6
:104F50002046002100F0A4F946F62A51C0F60001CF
:104F6000204600F055F920460121002200F0BEF94C
:104F70000EA120462A4600F04BF907B0F0BD00BF55
:104F80002046FFF747FE20460021002200F0AEF940
:104F90000AA1204600F03CF907B0F0BD4E686965F3
:104FA0007420646F3A20257300000000446F206174
:104FB0006D2020203A2025732025250053656E732F
:104FC0006F72204572726F7221000000F0B587B0D9
:104FD00040F2C126C2F2000632780D4604466AB994
:104FE0000020059040F60E20C0F20E00049004AAA6
:104FF00020460021FFF730FE01203070E86901F003
:1050000031FC46F62C57C0F6000704AE02460B46AC
:1050100030463946FBF756F9A86901F023FC0DF13B
:10502000060502460B4628463946FBF74BF9204653
:105030000021002200F05AF90BA12046324600F070
:10504000E7F846F62A51C0F60001204600F0E0F8E5
:1050500020460121002200F049F907A120462A46F6
:1050600000F0D6F807B0F0BD4E2E4E68696574208A
:10507000646F3A25730000004E2E446F20616D204E
:1050800020203A257325250070B582B004460B46D2
:105090004160217A5000627A41F00401217242F0AD
:1050A000340142F0300220708DF804108DF8052094
:1050B0008DF806108DF807206426C1B201AA1846A3
:1050C00004230096FDF710FA607A042340F03401BF
:1050D0008DF8041040F030018DF8051040F02401E7
:1050E0008DF8061040F02002606821788DF80720C6
:1050F00001AA0096FDF7F8F90520FDF70DF8607A92
:10510000042340F004018DF8041040F014018DF8E0
:1051100005008DF8061040F01002606821788DF8C7
:10512000072001AA0096FDF7DFF90520FCF7F4FF40
:10513000607A042340F004018DF8041040F0C401AB
:105140008DF805008DF8061040F0C00260682178E7
:105150008DF8072001AA0096FDF7C6F90520FCF797
:10516000DBFF607A042340F004018DF8041040F066
:1051700024018DF805008DF8061040F020026068CB
:1051800021788DF8072001AA0096FDF7ADF90520DA
:10519000FCF7C2FF627A042342F0840142F004006B
:1051A0008DF8041042F080018DF805108DF806008E
:1051B000606821788DF8072001AA0096FDF794F920
:1051C000207A637A20F001016FF07F02217220F0D3
:1051D0000F0042EA011143F0040242EA00051843BD
:1051E0008DF8050042EA01008DF8060043EA01024D
:1051F000606821788DF8072001AA04238DF80450F7
:105200000096FDF771F90820607202B070BD0000D1
:1052100082B02DE9F04788B00DF1080A0446CDE9C7
:10522000102310AA50460192FBF73AF89DF80800A7
:1052300088B34FF0FF374FF064080DF11C0900BF31
:105240000AEB07004078617A20F00F0241F0050375
:1052500041F0010143EA02050A438DF81D2043EAAB
:1052600000128DF81E2041EA0012606821788DF846
:105270001F204A4604237E1C8DF81C50CDF8008068
:10528000FDF732F95046FBF75CF90E2E03D8B91C36
:1052900088423746D4D808B0BDE8F04702B070471E
:1052A00080B582B090F809E001F0F0034EF0050CF3
:1052B0004CEA03028DF804204EF0010213438DF8EE
:1052C00005304CEA01138DF80630436842EA0112BA
:1052D00001788DF807204FF0640C01AA18460423CA
:1052E000CDF800C0FDF700F902B080BD80B582B0F6
:1052F00013A3595C437A114401F0700262F07F0EEF
:1053000043F0040C4CEA0E028DF804204EEA03022E
:105310008DF805204CEA01128DF8062043EA0112AF
:10532000436801788DF807204FF0640C01AA1846F5
:105330000423CDF800C0FDF7D7F802B080BD00BF50
:10534000004014542DE9F0439BB0D1E9055180464B
:10535000084601F087FA064628460F4601F082FA11
:105360000DF1080905460C4608A1484632463B4661
:10537000CDE90054FAF7A6FF82B2404649464FF005
:10538000FF33FEF7BBFB1BB0BDE8F08369643A6EE8
:105390006F6465323B74656D7076616C75653A2536
:1053A0002E32663B68756D696476616C75653A2569
:1053B0002E32663B0A00000094B0FDF7C7F90024C6
:1053C0000120CDE90F44CDE90D440A900E904FF431
:1053D000E0104FF48031022513900AA8CDE90B1498
:1053E000CDE91151FDF760FB20B1EFF3108072B6EB
:1053F000FEE700BF0F20CDE904054FF48060CDE942
:10540000070404A802210694FDF748FA20B1EFF33F
:10541000108072B6FEE700BF002641F21800CDE909
:105420000C66CDE90A66C4F20200016840F6000A83
:1054300041F0100101600168C4F2010A01F010019D
:105440000491049901680AF5006441F020010160AB
:105450000168002201F020010491049901684FF4D1
:10546000005541F004010160016801F0040104915C
:105470000499016841F00801016000684FF400518F
:1054800000F00800049004982046FCF76FFF504697
:10549000702100224FF0700BFCF768FF0AF580695D
:1054A00048464FF480710022FCF760FF0A950AAD70
:1054B00001274FF0020820462946CDE90B76CDF8AA
:1054C0003480FCF73DFE50462946CDE90AB7CDE9C8
:1054D0000C68FCF735FE4FF480700A9011200BA980
:1054E00081E8810148462946D046FCF729FE40F272
:1054F000E8100AF54051C2F200000C234FF4165296
:1055000080E84600C0E90366C0E90536C661FEF7DB
:1055100087F928B1EFF3108072B600BFFEE700BF35
:1055200040F2A010C2F200004FF080414FF6FF732E
:105530000D96CDE90B66CDE90466472280E846006A
:10554000C0E903368661FDF705FD28B1EFF3108051
:1055500072B600BFFEE700BF4FF480500A9040F2E1
:10556000A010C2F200000AA9FDF7CEFD20B1EFF3B2
:10557000108072B6FEE700BF40F2A010C2F2000039
:1055800004A9FDF7A7FC28B1EFF3108072B600BFA5
:10559000FEE700BF40F24C10A8F53441C2F2000013
:1055A00048F2A06200244FF48043C0F2010280E878
:1055B0001600C0E90343C0E90544C0E90744FCF70D
:1055C000E1FE28B1EFF3108072B600BFFEE700BF26
:1055D00040F23020A8F54441C2F200000C254FF4FF
:1055E000E13280E81600C0E90344C0E90554C46113
:1055F000FEF716F920B1EFF3108072B6FEE700BF98
:1056000040F27820A8F54041C2F200004FF0000BB4
:105610004FF4165280E80608C0E903BBC0E9055BF9
:10562000C0F81CB0FEF7FCF820B1EFF3108072B6A2
:10563000FEE700BF40F2A01AC2F2000A5046FDF792
:1056400015FD40F2E81540F27006C2F20005C2F204
:105650000006284631460122FEF70AFA06F1400705
:1056600006F124043846214600F0B8F828462146C1
:10567000FFF768FE204651464A464FF48073FFF715
:10568000EBF92046FEF7F4FE06F1040940F278211A
:10569000C2F2000148461E22FEF778FE06F1180A03
:1056A00040F24C11C2F2000150462722FFF7ECFCF9
:1056B0005046FFF7AFFA50462146FFF7EFFB202098
:1056C0004FF0400CCDE900083846414610224346D1
:1056D000CDF808C0FFF790FA00200021C4F2C810EE
:1056E000C4F2482186F860B041F27D5840F6B83BDC
:1056F000C6E91610384621464A46FFF71BFAFCF762
:105700003BFEB168401A642805D3FCF735FEB06053
:105710002046FEF7ADFE3846214600F05FF8FCF764
:105720002BFEF168401A404525D3FCF725FEF060BA
:1057300028462146FFF706FE0220FCF7EDFC28462E
:105740002146FFF7FFFD0220FCF7E6FC2846214634
:10575000FFF7F8FD0220FCF7DFFC28462146FFF7A3
:10576000F1FD0220FCF7D8FC28462146FFF7EAFDB0
:105770000220FCF7D1FCFCF7FFFD3169401A5845C7
:1057800006D3FCF7F9FD306150462146FFF786FB52
:10579000FCF7F2FD7169401AB0F57A7FAAD3FCF7E5
:1057A000EBFD706150463946FFF710FCA2E70000A0
:1057B00040F2E401C2F200014A780A2808D18818B0
:1057C0000023837001200870501C4870704700BF90
:1057D0008B189870501C48707047000010B540F24C
:1057E000E404C2F200042178002908BF10BD01467C
:1057F000A01CFEF7B5FD0020208010BD5FEA400C24
:1058000008BF91F0000F4FEA8C234FEAC12243EA10
:1058100051514FEA1C5018BF00F5F0404FEA3000DC
:1058200018BF41F000415FEA6C5C00F02980BCF1D8
:10583000FF3F08BF40F080407047130C06BF1204C2
:105840004FF0100C4FF0000C130E04BF12020CF1BD
:10585000080C130F04BF12010CF1040C930F04BFCA
:1058600092000CF1020CD30F04BF52000CF1010C9A
:1058700011464FF00002A0F11F00A0EB0C00704792
:1058800011F0004F08BF704731F000413FF4D5AF31
:105890000B0C06BF09044FF0100C4FF0000C0B0E60
:1058A00004BF09020CF1080C0B0F04BF09010CF135
:1058B000040C8B0F04BF89000CF1020CCB0F04BF4A
:1058C00049000CF1010CCCF1200322FA03F341EA68
:1058D000030102FA0CF2A0EB0C0000F1010070478A
:1058E00023F07F4720F07F4C80EA030000F0004067
:1058F000ACEB070303F57C5303F1FF032DE980496B
:1059000009B44FEA144324EA03484FEA154B25EA49
:105910000B4E0FF2042606EB13273E7803FB0667B7
:10592000C7F5000707FB06F64FEAD64606F1020662
:105930004FEA543707FB066CCCF1005C4FEA1C477A
:105940002CEA074C0CFB06F507FB06F404EB1546A6
:105950004FEA961649085FEA320234BF00204FF042
:1059600000404FEAD13706FB07FC4FEA1C4C0CFB0A
:105970000BF7D21B03FB0CF761EB07010CFB0EF7D7
:10598000B0EB074072EB17420CFB08F734BFA2EBF9
:105990000742B2EB074261EB17414FEA0C444FEA72
:1059A000910706FB07FC4FEA1C4C0CFB0BF7B0EB16
:1059B000C74072EB573203FB0CF734BFA2EBC74270
:1059C000B2EBC74261EB57310CFB0EF7B0EBC700EF
:1059D00072EB57720CFB08F734BFA2EBC702B2EBB5
:1059E000C70261EB57714FEA816141EA92114FEAB8
:1059F000826242EA90124FEA806004EBCC04039F7B
:105A00004FEAD13706FB07FC4FEA1C4C0CFB0BF7A7
:105A1000D21B03FB0CF761EB07010CFB0EF7B0EB9D
:105A2000074072EB17420CFB08F734BFA2EB0742AA
:105A3000B2EB074261EB17414FEA8C5504EB9C2413
:105A40004FEA910706FB07FC4FEA1C4C0CFB0BF7D7
:105A5000B0EBC74072EB573203FB0CF734BFA2EB3D
:105A6000C742B2EBC74261EB57310CFB0EF7B0EB0C
:105A7000C70072EB57720CFB08F734BFA2EBC702EA
:105A8000B2EBC70261EB57714FEA816141EA9211B3
:105A90004FEA826242EA90124FEA806015EB4C2591
:105AA00044F100044FEAD13706FB07FC4FEA1C4CD7
:105AB0000CFB0BF7D21B03FB0CF761EB07010CFB94
:105AC0000EF7B0EB074072EB17420CFB08F734BF40
:105AD000A2EB0742B2EB074261EB17414FEA81317B
