:020000040800F2
:100000006809002061020008595700087D4D00086A
:1000100055570008C520000885580008000000005A
:100020000000000000000000000000006157000810
:10003000C9200008000000005D570008655700084F
:100040007B0200087B0200087B0200087B0200089C
:100050007B0200087B0200087B0200087B0200088C
:100060007B0200087B0200087B0200087B0200087C
:100070007B0200087B0200087B0200087B0200086C
:100080007B0200087B0200087B0200087B0200085C
:100090007B0200087B0200087B0200087B0200084C
:1000A0007B0200087B0200087B0200087B0200083C
:1000B0007B0200087B0200087B0200087B0200082C
:1000C0007B0200087B0200087B0200087B0200081C
:1000D0007B020008795800087B0200087B020008B8
:1000E0007B0200087B0200087B02000800F002F897
:1000F00000F0A6F814A696E8000CB244B344DA4522
:1001000001D100F09DF8BAE80F000FA696E8300084
:10011000A5EB040504EB0607AAEB0704A7F101070A
:100120004FEA15154FEA3414A4F10104AC4201D38F
:1001300000F086F813F0010F18BFFB1A43F001031B
:1001400000F001F8DBE71847749400009494000075
:10015000103A24BF78C878C1FAD8520724BF30C8F3
:1001600030C144BF04680C60704700007047000055
:100170000023002400250026103A28BF78C1FBD8B0
:10018000520728BF30C148BF0B6070476E2900F08E
:100190000683702900F05786662909F09D8065293D
:1001A00009F09A80672909F09780612909F0968003
:1001B00003681B0A28BF41F08001692900F0D28042
:1001C000642900F0CF80752900F0CC806F2900F001
:1001D000E585782900F02386E92900F07F85E42968
:1001E00000F07C85F52900F07985EF2900F0E285A3
:1001F000F82900F022860368DB0928BF41F080015E
:10020000632901F0E180732901F0E680E32901F020
:10021000F180F32901F0F680002070471FB500F04F
:10022000B9FE04000020002107F05CFE401C606065
:100230000020002107F040FEE0601FBD10B510BD9A
:1002400001F0EAF91146FFF7E9FF05F0C1FF01F0FF
:1002500093FC03B4FFF7F2FF03BC01F0D3FE0000F0
:100260000948804709480047FEE7FEE7FEE7FEE74A
:10027000FEE7FEE7FEE7FEE7FEE7FEE70448054986
:10028000054A064B7047000069570008ED0000085A
:100290006803002068090020680500206805002028
:1002A0001CB50C46064B7B4469460090204600F086
:1002B0009EFC04460020694600F0ACFC20461CBDB4
:1002C0006B0900000FB41CB5084B06AA7B446946B5
:1002D0000090059800F08BFC04460020694600F071
:1002E00099FC20461CBC5DF814FB00004509000089
:1002F00070B5044685690068C10601D5302600E066
:100300002026C00707D070BDD4E9012130469047B0
:10031000206A401C20626D1EF6D570BD70B5044683
:1003200085690078C00707D170BDD4E9012120207C
:100330009047206A401C20626D1EF6D570BD09688A
:100340004A0501D540B27047C905FCD500B27047D7
:1003500009684A0501D5C0B27047C905FCD580B20D
:10036000704700002DE9F041064600241068752909
:10037000314616A510D0FFF7E2FF002802DA40420E
:1003800013A507E031688A0701D512A502E04907E5
:1003900004D511A5012401E0FFF7DAFF00210A22AC
:1003A00006F1240709E0B0FBF2FCB0FBF2F302FB1C
:1003B0001C00303078541846491C0028F3D12346DD
:1003C0002A463046BDE8F04100F090B90000000038
:1003D0002D0000002B000000200000002DE9F05F40
:1003E000894604464FF0000ADFF874B1FB44C0F8B8
:1003F00020A02046E1688847002874D0252806D030
:10040000D4E901219047206A401C2062F1E70026D0
:100410005F462046E16888472028054607DB312DE6
:1004200005D2781910F8200C08B10643F1E7B0079F
:1004300001D526F00406C4F81CA00027C4F818A0B3
:100440002A2D09D0284606F098FF38B304EB870818
:10045000303DC8F8185019E059F8041B204604EB49
:1004600087029161E1688847012F054618D1E0694C
:10047000002820DA26F020061DE0D8F8180000EB4E
:10048000800005EB40003038C8F818002046E168CD
:100490008847054606F071FF0028EED1012F0AD0EB
:1004A0002E2D08D12046E16888477F1C0546022F83
:1004B00046F02006C4DBA069002803DA404246F07B
:1004C0000106A061F00701D026F010066C2D0BD0BC
:1004D000682D09D04C2D39D06A2D35D0742D35D0EA
:1004E0007A2D33D016E038E0E1682F462046884761
:1004F000B842054609D16C2F26D04FF48060E168E0
:10050000064320468847054604E06C2F1AD04FF476
:10051000807006430DB3A5F14100192802D820359B
:1005200046F400664A462946204626604E46FFF7B6
:100530002DFE80B101280BD0F61D26F0070000F13A
:10054000080956E74020E4E78020D8E70020D6E7F6
:1005500006F104094DE7284652E7206ABDE8F09FFE
:10056000EC8F000070B5064600F088F80468054678
:1005700030460A22002100F0C9FC2C6070BD401EEC
:10058000CAB210F8011F8A4202D00029F9D1002016
:10059000704730B505460B462A4613F8014B12F852
:1005A000010B08B1A042F8D01CB1002802D06D1C8C
:1005B000F1E7284630BD10B5431C02E010F8011BDE
:1005C00071B18107FAD14FF0013202C88C1A8C4305
:1005D00014EAC211F9D0C01A0A0603D0C01E10BD19
:1005E000C01A10BD0A0401D0801E10BD0902FCD043
:1005F000401E10BD4FF0013C50F8042B51F8043B55
:100600009A4221D1A2EB0C03934313EACC1317D1E6
:1006100050F8042B51F8043B9A4215D1A2EB0C037D
:10062000934313EACC130BD150F8042B51F8043B3D
:100630009A4209D1A2EB0C03934313EACC13DBD00B
:100640004FF00000704700BFD01A01BAB1FA81F133
:1006500001F0180122FA01F0CB40DBB2C0B2C01A9F
:10066000C1F120012CFA01F3D11A914311EAC3110F
:10067000E6D17047704770477047000000487047E8
:100680001000002010B5FFF7F9FF006810BD10B58D
:100690000446FFF7F3FF046010BD70B50C46054635
:1006A000012A05D02878800600D5EA69002302E0F7
:1006B000012305E05B1C934202D2E05C0028F9D1E3
:1006C000A869E618C01AA861286A18442862284652
:1006D000FFF70EFE04E0D5E9012114F8010B904765
:1006E000B442F8D32846FFF719FE70BD2DE9F04754
:1006F0000D4699469246044600F124080168880692
:1007000004D5E06921F01001216000E00120A84239
:1007100001DD471B00E00027A1697A1902EB0900FF
:10072000081AA0612078C00602D42046FFF7E0FD39
:10073000002608E0D4E901211AF806009047206A53
:10074000401C761C20624E45F4DB2078C0060AD59A
:100750002046FFF7CDFD06E0D4E901213020904787
:10076000206A401C2062381EA7F10107F4DC07E074
:10077000D4E9012118F805009047206A401C206246
:10078000281EA5F10105F3DC2046FFF7C7FD207800
:10079000000602D50220BDE8F0870120FBE71168C2
:1007A0000268006A530501D508700AE0D30501D537
:1007B000088006E0130603D5C217C1E9000200E075
:1007C0000860012070472DE9FF4F0C461E464FF090
:1007D000FF378BB0D2E90001DDF860800A908A46CD
:1007E000C1F30A5505B93D46002108464FF0000007
:1007F000BAF1000F00F4400005DA00EB80004FF47E
:10080000400101EA50004FEA9059B9F1010F00DDB3
:10081000B9460A9850EA4A000ED044F61050A5F2A4
:10082000FF3545432F14B8F1000F1ED07542291E25
:100830001EDDC9F100021CE0B8F1010F4FF000000D
:1008400001D0302103E0F24305E02154401CB042C6
:10085000FBDB30460022002121540B99C1F80880AF
:10086000C1E900200FB0BDE8F08FBD1B6D1CDEE7B5
:100870004A4600DA694206A800F038FE06AB93E863
:10088000070003AB83E8070050460A9906F046F8D4
:100890008DE80700A0F500501F3800900398002D48
:1008A0000ADD42F21F014A460844002303A90390CF
:1008B000684606F0F1FA09E0A0F500504A461F38F4
:1008C000002303A90390684606F010FB8DE807009B
:1008D0000004000C03D04FF0FF30410800E0104648
:1008E000B8F1000F03D00022009215461EE0751EDD
:1008F00005D400F053FB303262556D1EF9D5B34676
:100900000122084302D000227F1C04E02078302816
:1009100001D100227F1E002A099784D01DE0112DED
:1009200007DA00F03BFB303262556D1C50EA0102E1
:10093000F5D1084302D00098C8B10EE00021681E2E
:1009400005E0235C625C63542254401E491C8142D2
:10095000F7DBAB46A81B401E0990002004F80B00F3
:100960000B98099AC0F80880C0E9002B7AE7112695
:100970004FF0000857E72DE9F04F88460446D21D96
:1009800022F0070191B0D1E90001CDE90A0106F09A
:10099000F9FB02460B98C00F01D02D2007E020681C
:1009A000810701D52B2002E0202101EAC000032AA3
:1009B000099001D0072A05DB03464146204600F096
:1009C000B9FC0BE12078800601D5E06900E0062043
:1009D000B8F1650F814606D0B8F1660F18D0B8F1AE
:1009E000670F70D131E00020B9F1110F009001DBE9
:1009F000112301E009F101030AAA01A90CA8FFF7DC
:100A0000E2FEDDE90C70002609F10105834647E0AE
:100A100001204B4600904FF000470AAA01A90CA8FC
:100A2000FFF7D1FEDDE90DB00C995D46002610B947
:100A300009F101000D18B9EB050003D4C0F1FF3630
:100A400009F10105A5EB09002BE0B9F1010F01DA6D
:100A50004FF001090020B9F1110F0090484601DD67
:100A6000112300E003460AAA01A90CA8FFF7ABFE78
:100A7000DDE90C704D4600268346207800070AD435
:100A8000AB4500DA5D4601A8012D04DD411911F8DE
:100A9000011C302907D04F4502DA17F1040F04DAA0
:100AA000012082460FE06D1EEEE7002F02DCED1BF9
:100AB0003E4403E0781CA84200DD7D1CB81B00F119
:100AC000010A4FF000472078000703D4AA4501DB54
:100AD0004FF0FF3A0021B7F1004F0DF143088DF8B8
:100AE000431024D002202B23002F01DA7F422D2334
:100AF0000A21021EA0F1010000DC5FB197FBF1FCAE
:100B000097FBF1F201FB1C7C17460CF1300C08F846
:100B100001CDEEE7A8F1010003702188090501D598
:100B2000452100E06521A0F1010800F8011C0998A9
:100B30000FA9A1EB0807FF1D00B10120411901EB2E
:100B4000EA70A1693844081A401EA0612078C006E6
:100B500002D42046FFF7CCFB099828B1D4E9012143
:100B60009047206A401C20622078C00622D520468B
:100B7000FFF7BEFB1EE0002E04DBB34502DD01A83B
:100B8000805D00E03020D4E901219047206A401CBC
:100B90002062761CAAF101005FEA000A0AD100F087
:100BA000F9F9C0680168405CD4E901219047206AE6
:100BB000401C2062281EA5F10105DCDC07E0D4E919
:100BC000012118F8010B9047206A401C2062381E52
:100BD000A7F10107F3DC2046FFF7A0FB032011B0CB
:100BE00041E6000001694A1C02610878704700B5BF
:100BF0008FB0CDE901310021059105497944CDE956
:100C0000031011466846FFF7E9FB0FB000BD000076
:100C1000E5FFFFFF0A6802F8010B0A607047000059
:100C20002DE9FF5F15468A460446DFF8AC80F8449C
:100C30000027D8E900103E46CDE9001010E03AF850
:100C400016106A4602A800F0C3FC411C07D02178A8
:100C5000890603D5E269391891420DD80744761CFC
:100C60002078800602D5E069B84205DDAE42E6DBB9
:100C70003AF816000028E2D1A069C01BA061204606
:100C8000FFF736FBD8E90010CDE90010002017E08F
:100C90003AF818106A4602A800F09AFCB0F1FF3F3B
:100CA00081460BD000250DF1080B05E0D4E90121A8
:100CB0001BF8050090476D1C4D45F7D308F1010066
:100CC000B0428046E4DB206A384420622046FFF7C9
:100CD00025FBBDE8FF9F0000468800002DE9F0419C
:100CE0008046D21D22F007020025D2E90002F52934
:100CF00015A614D0011E72F1000106DA0023D0EB14
:100D0000030063EB020211A608E0D8F800108B077D
:100D100001D50FA602E0490701D50EA6012511460F
:100D2000002408F1240704E000F038F930323A5585
:100D3000641C50EA0102F7D12B4632462146404658
:100D4000BDE8F041FFF7D2BC000000002D0000001C
:100D50002B0000002000000030B4002100F124042A
:100D600008E002F00705D208303542EA4372DB089A
:100D70006554491C52EA0305F3D10468002310A20C
:100D8000250708D504F020040C4304D0C4690123CE
:100D90000CA2641EC46130BCFFF7A8BC10B50446A9
:100DA00021461068FFF7D4FA02462046BDE81040FD
:100DB0000023D1E7D21D22F00701D1E90023CBE7C0
:100DC0000000000030000000F0B40D460188090565
:100DD00002D5214C7C4402E01F4C7C440E3400219F
:100DE00000F1240608E002F00F071209E75D42EA6D
:100DF00003721B097754491C52EA0307F3D10278A6
:100E00000023120704D5702D06D009B10223113436
:100E10002246F0BCFFF76ABC01231034F8E770B536
:100E200004460D4621461068FFF792FA024629460D
:100E30002046BDE870400023C6E7D21D22F007031C
:100E4000D3E90023C0E70368126843F0200303607E
:100E50000823C3610023B7E7A88600000FB40B0086
:100E600010B54FF000048AB00FA900910E99CC6024
:100E7000234C7C44234A7A44CDE9064200D0042323
:100E80006FF00042CDE901321F4A7A446B46089266
:100E90000246002008F084FA0AB010BC5DF814FB8A
:100EA000F0B507464FF0FF301E4615460C463B4650
:100EB00085B06A460091CDE90101314600200490D9
:100EC00004A8FFF7CBFF04990346601825B109B1C8
:100ED000024600E022462A6000290ED0002B02DDE7
:100EE0000099814209D03B466A463146001B009476
:100EF000CDE9010404A8FFF7B1FF05B0F0BD000083
:100F000097050000B1050000990100002DE9F047A8
:100F100091460F4680460446002614F8015B2DB129
:100F200000F030F80068405DC007F6D12B2D02D0EC
:100F30002D2D18D0641E4A463946204600F086FA08
:100F400027B13968A14201D1C7F800804FF00204EF
:100F500071050BD54042002803DDFFF78FFB0460CD
:100F6000A007BDE8F08746F48066E4E70028F8DAD9
:100F7000FFF784FB04606FF00040F2E70048704721
:100F80001000002010B500F005F8001D10BD00BFD6
:100F9000556F0000004870473000002030B5B0F1B8
:100FA0000A0271F100034FEA900E4EEA817EB0EB27
:100FB0000E0061EB91014FEA101E4EEA017E10EB2C
:100FC0000E0041EB11114FEA102E4EEA016E10EBAC
:100FD0000E0041EB11214FEA104E4EEA014E10EB8C
:100FE0000E0041EB1141401841F100014FEAD000E1
:100FF00040EA41704FEAD1014FEA810444EA90741B
:1010000010EB800544EB01046D1944EB0404521B02
:10101000A3414FF0000348BF0A3200D530BD401C49
:1010200041F1000130BD10B50446FFF7ABFF006889
:10103000005D00F0010010BD2DE9F04F04460D46A3
:10104000D21D22F0070089B0D0E900974846394602
:1010500006F098F80246F80F01D02D2307E020682B
:10106000810701D52B2302E0202101EAC0038DF87E
:1010700020300BB1012000E00020032A824601D07D
:10108000072A04DB2946204600F054F93FE1207886
:10109000800601D40D2500E0E569C7F30A560D2D41
:1010A00049DA00214FEA175B08464FF00000002F95
:1010B00000F4400007DA00EB80004FF4400100EB41
:1010C000D07001EA60008115012901DD4FF0FF3188
:1010D00000224FEA850CBCF1180F06D31346ACF181
:1010E00018004FF08052C24003E04FF4801323FAFF
:1010F0000CF30CF10C0CBCF1200F04D3ACF1200C60
:1011000009FA0CF001E007FA0CF000294FF0004852
:1011100001DD18B90FE00ED140450CD319EB0209DF
:101120005F4121B9404502D19F4329EA0209BBEB47
:10113000175F00D0761C2088000502D57B487844D4
:1011400002E07A487844193808AA302302F80A30B5
:10115000037C0AF10101002E0AF1020A53546A4687
:1011600002DC4FF0300101E04FF031014FF0010897
:101170008DF8001002D0A6F2FF3603E059EA4701CD
:1011800000D06B4E002D02DC2178090704D54FF00A
:1011900002082E218DF80110C44600210BE0C7F390
:1011A00003433F01C35C491C6D1E02F8083005294A
:1011B00008F1010801DA002DF1DC00210CE000EB60
:1011C0001973491C1B786D1E082902F808304FEA74
:1011D000091908F1010801DA002DF0DC21688B06FD
:1011E00002D516E0A8F10108E04505DD02EB080391
:1011F00013F8013C302BF5D0B8F1000F09DD02EBFC
:10120000080313F8013C2E2B03D1090701D4A8F1E0
:101210000108002D05DD3E2102F808106D1E08F1C1
:101220000108407C002E02F8080008F1010804DAE9
:101230002D20764202F8080002E02B2002F8080078
:101240000A214FF47A70864208F101080BDB96FB05
:10125000F0F3303302F8083096FBF0F308F10108A0
:1012600000FB136601E0642E0CDB642096FBF0F3B8
:10127000303302F8083096FBF0F308F1010800FB68
:10128000136601E00A2E06DB96FBF1F0303002F81F
:10129000080008F1010896FBF1F001FB1060303006
:1012A00002F80800A16908F1010808EB050202EB49
:1012B0000A00081AA0612078C00602D42046FFF771
:1012C00017F8216A08AE01EB0A00206204E0D4E9B5
:1012D000012116F8010B9047BAF1010AF7D22078E4
:1012E000C00602D52046FFF703F86E4609E016F85F
:1012F000010B3E280FD0D4E901219047206A401C01
:101300002062B8F10108F2D22046FFF707F809B0D1
:101310000320BDE8F08F206A2844206203E0D4E96E
:101320000121302090476D1EEBD3F8E78183000048
:1013300002FCFFFF2DE9F0411F4604460326016829
:10134000072A01F4006004DB08B116A505E016A524
:1013500003E008B115A500E015A521F010002060FC
:10136000A069C01EA0610FB1401EA0612046FEF71B
:10137000BFFF4FB1D4E9012138469047206A401C95
:101380002062C01C206206E0206AFAE7D4E901214D
:1013900015F8010B9047761EF8D22046FEF7BEFFE7
:1013A000BDE8F0814E414E006E616E00494E460030
:1013B000696E660010B5436913B1AFF3008001E0B8
:1013C000FFF76BF9012010BD127800F124010A70BB
:1013D00000224A700122EDE711684FF0FF32E9E781
:1013E00010B5436913B1AFF3008001E0FFF718FCBB
:1013F000012010BD128800F1240182840022C284E1
:101400000122EDE711684FF0FF32E9E7426842B18F
:10141000016811F8013B23B1521EC0E900121846C1
:1014200070470121C160881E704742685AB1C36885
:10143000016843B983688B4205D0491E521CC0E93C
:101440000012002070474FF0FF3070472DE9F05F29
:10145000824615468B4600270AF10104B9460078FA
:10146000302801D09DB113E014F8010B0127782832
:1014700003D0582801D045B10AE00DB1102D07D195
:10148000002714F8010B102502E0082500E00A25CA
:101490000026B0460EE005FB080005FB06F101271B
:1014A0001FFA80F801EB1046B6F5803F00D3B9462D
:1014B00014F8010B294600F0D4F80028EBDABBF150
:1014C000000F05D00FB1641E00E05446CBF8004079
:1014D000B9F1000F06D0FFF7D1F802210160C81E54
:1014E000BDE8F09F48EA0640FAE700002DE9F04722
:1014F000814616468AB0354878440DC88DE80D00FF
:1015000032487844801C03AC0DC884E80D0041F6D5
:101510009B300844372190FBF1F290FBF1F5A5F1E7
:10152000800501FB12041B3C02D56442012000E04F
:101530000020DFF898A080460027FA44AAF1BE0AEE
:101540000EE0E0070AD03246684607EB4701012368
:101550000AEB810105F0CAFC8DE8070064107F1CCE
:10156000002CEED1194F7F44AE3F19E0E80715D0AB
:1015700007EB04100DF1180A90E80E008AE80E003F
:10158000C068F04201D1981908903246012306A99B
:1015900003A805F0ABFC03AB83E807006D10641CE7
:1015A000002DE3D14FF0010332466946B8F1000F38
:1015B00003A802D005F070FC01E005F097FCC9E932
:1015C0000001C9F808200AB0BDE8F0875880000083
:1015D0002DE9F04116460C460546FFF7D3FC03689B
:1015E00093F80101012807D0FF2C12D8185D80B1B3
:1015F00001202C70BDE8F081D3F807013246214666
:1016000003F20713C7182846BC46BDE8F041002383
:1016100060474FF0FF30EDE77546FFF7AFFCAE4691
:1016200005006946534620F00700854618B020B5EE
:10163000FEF724FEBDE820404FF000064FF0000703
:101640004FF000084FF0000BAC46ACE8C009ACE826
:10165000C009ACE8C009ACE8C00921F007018D461B
:1016600070473A2800D2303820F02002412A01D3B6
:10167000A2F13700884201D34FF0FF3070470000DD
:101680002DE9FF4F06468BB00878FF2806D0491C8D
:101690002D2805D000244FF0000908E000200CE0C0
:1016A0000124F8E709EB8903491C00EB430908789A
:1016B000FF28F7D114B1C9F1000081461078002548
:1016C0002C46AA4629462D2801D02B2804D1521C8D
:1016D0002D2813D0002082468B461078FF280FD08B
:1016E0004FF0000C0A21521CA5FB017804FB01817C
:1016F00005FB0C11C5194BEB0104EEE70120EAE7ED
:10170000002108464FF00000BAF1000F02D000EBB4
:1017100080004008C0F38157012F01DD4FF0FF37F3
:101720000E9955EA040009EB01080BD04FF00209AD
:1017300018F5FA7F16DA4FEACA70002F706008DDDC
:10174000012007E04FEACA70C6E900B00FB0BDE85B
:10175000F08F00203060FEF791FFC0F80090182154
:10176000084616E0B8F5FA7F18DD002F02DAF748D0
:10177000784401E0F6487844D0E90010C6E900104A
:1017800040EACA707060FEF779FFC0F8009014213B
:1017900008460FB0BDE8F04F07F09BBD002108469A
:1017A0004FF00000B8F10001099002DAC7F1000221
:1017B00000E03A4601DAC8F1000106A8FFF796FEFC
:1017C00006AB93E8070003AB83E8070044F23E0052
:1017D0005BEA04010090584604D144F21E012C46F5
:1017E0005D460091210C0904014306D100992404AF
:1017F00044EA15442D041039009104F07F4101435F
:1018000006D10099240244EA15642D02083900919A
:1018100004F07041014306D10099240144EA157493
:101820002D01091F009104F04041014306D10099A8
:10183000A40044EA9574AD00891E009104F00041B3
:10184000084304D100986D196441401E00904FF088
:1018500001033A466846B8F1000FCDE9014503A9F6
:1018600002DD05F058FB01E005F02BFBBAF1000F9B
:1018700004460D4601D084F00044002108464FF094
:101880000000099940F2FF77484010F00C0F07D193
:1018900024F00040284303D0C4F30A50B84212D1C8
:1018A000FEF7ECFEC0F80090C4F30A50B8420AD12B
:1018B000A8487844D0E90010C6E9001004F00041BF
:1018C0000843706042E7C6E900543FE72DE9FF4F47
:1018D0001F464FF0000A4FF0FF38454691B0D7E958
:1018E0000146CDF83CA0FFF755FBC0680168405C9D
:1018F0001090B96912986D1C8847396A81468847EB
:101900000028F6D1B9F1FF3F0AD0002E24F4D064AC
:1019100011DDB9F12B0F08D0B9F12D0F0BD102E079
:10192000404615B013E744F48064B96912986D1C01
:101930008847761E8146600504A901D52D2000E068
:101940002B20002E01F1010B0DF130088DF8100055
:101950003FDDB9F1690F08D0B9F1490F05D0B9F1F0
:101960006E0F02D0B9F14E0F1CD13B4601A8009575
:1019700080E85002DDE912126FF0020007F014FD5A
:10198000C11CCED10EE0B96912986D1C8847814602
:101990001398761E44F4007405600F98401C002EC6
:1019A0000F9016DDB9F1300FEDD0B9F1780F02D0FC
:1019B000B9F1580F0DD10F9801280AD13B46CDE956
:1019C0000054DDE91212001F029607F0EBFCC11C67
:1019D000A7D1109989453ED144F0800406E01399BF
:1019E000681CAAF1010A44F400740860B9696D1C0E
:1019F0001298761E884730288146F0D02BE0109947
:101A0000894505D1200603D4761E44F0800418E0F1
:101A1000484605F0B2FC08B3761E0DF1230293454B
:101A2000A9F1300044F4007406D20BF8010B200633
:101A300007D5AAF1010003E0200602D40AF1010053
:101A40008246A00502D51399681C0860B9691298EE
:101A50006D1C88478146002ED1DC53E0002E51DDFD
:101A6000B9F1650F02D0B9F1450F4BD1A00549D5A9
:101A7000B9696D1C1298761E24F440748847002EB4
:101A800081460CDD2B2804D0B9F12D0F07D144F489
:101A90008074B96912986D1C8847761E8146E005EE
:101AA00001D52D2100E02B2108F8011BCDF8008085
:101AB00021E0761E0DF13901884544F400740CD202
:101AC000A9F1300010F0FF0088F8000002D1009961
:101AD000884509D908F1010806E0E00501D51E484E
:101AE00001E042F20F708246B96912986D1C884776
:101AF000814613980560002E04DD484605F03DFC44
:101B00000028D6D1F96912988847FF2053468BF8F0
:101B1000000088F8000000200A900B9004AA0CA98D
:101B20000AA8FFF7ADFDA00502D46FF00100F8E6AA
:101B300014F0240F12D0E0071CD13868DDE90A1236
:101B4000031D3B600068C0E9001213E0707E0000D6
:101B5000627E0000267D0000F1D8FFFF0AA96846DA
:101B600005F09AFBE00705D13868009A011D39603D
:101B7000006802602846D4E610B50446AFF3008042
:101B80002046BDE81040FEF764BBB2F120030AD541
:101B9000C2F1200301FA02F120FA03F341EA030142
:101BA00000FA02F0704700FA03F14FF000007047AE
:101BB0002DE9FF4F1F464FF03C0987B04FF0004220
:101BC000DDE9141001F10108DDF858A002EA4050E7
:101BD0000390002005908346054604460490B969A9
:101BE000461E08988847AAF1010A0290BAF1000F30
:101BF0003BDD02982E2815D01021FFF732FD00287A
:101C00002EDB4FF0010B0599014317D0B9F1000FFE
:101C10000BDB4A46C117FFF7B8FF05430C43A9F198
:101C2000040905E0012004900BE008B145F001052E
:101C300001200590049820B9361D02E0049800B1F7
:101C4000361FB969089808F101088847BBF1000FF1
:101C5000AAF1010A0290C9D00999C1F80080C5E72C
:101C60000298702808D0502806D0F969089888474B
:101C7000BBF1000F14D04FE0002002900120BBF117
:101C8000000F049009D0B969089808F10108884745
:101C9000AAF10109B9F1000F07DCF9690898884732
:101CA0006FF001000BB0BDE8F08F2B2804D02D2879
:101CB0000CD14FF0FF300490B969089808F1010881
:101CC0008847A9F10109B9F1000FE6DD411CE4D014
:101CD0000A21FFF7C6FC0028DFDB029908F10108A2
:101CE00001EB810100EB41000290B9690898884737
:101CF0000A21FFF7B6FC099AA9F10109B9F1000F11
:101D0000C2F8008001DD0028E7DAF9690898884701
:101D10000499029800FB016655EA040004D004F01F
:101D20004041090002D006E0039898E0A40044EA8C
:101D30009574AD00B61E04F00041080002D16D1983
:101D40006441761E159810F0240F03D04FF00B0954
:101D50005C4803E04FF028096FF07D00824656454D
:101D600007DAAAEB06018944B9F1410F01DD4FF012
:101D7000410901200021A9F10102FFF706FF0246F7
:101D800028400B462140084301D0012100E00021FA
:101D9000501E029143F1FF3128402140084301D0F9
:101DA000012000E000200299834651EA0B014FD048
:101DB000002108464FF00000039900F4400039B1BB
:101DC00000EB80004FF4400100EBD07001EA6000AE
:101DD0008015012802DD4FF0FF3000E013D0401CD9
:101DE00036D0029860B3BBF1000F0CD14A460120F7
:101DF0000021FFF7CAFE28402140084301D00120FE
:101E000000E00020E0B101204A460021FFF7BDFEBE
:101E1000034640190A4661412D1A8C4111D3B9F18C
:101E2000400F09DD159810F0240F02D0AAF13406F6
:101E300003E0AAF1170600E0761C00254FF00044ED
:101E400006E05B1E42F1FF3220EA030521EA0204AC
:101E5000CAF10100B04206DA1B4903980843019019
:101E6000002000900EE0039AC4F3D321E80A0A434D
:101E7000164940EA44500A433146CDE9000268461B
:101E800005F070FA159810F0240F0BD01598C007C4
:101E900015D13868DDE90012031D3B600068C0E918
:101EA00000120CE002A8694605F0F6F91598C00783
:101EB00005D13868029A011D396000680260404609
:101EC000F0E6000002FCFFFF0000F07F0000F03FA2
:101ED0002DE9FF4F92461D4685B04FF00041DDE9E8
:101EE000124BDDE914727F1E01EA4B50414940F06C
:101EF000FF4940EA0108002122F02000492804910E
:101F000002D04E2828D04CE03BA0012607C88DE81F
:101F10000700A9690698641C88477F1E014606D4FD
:101F20001DF8060018B121F0200181420BD0E969AB
:101F300006988847032E34D0082E32D06FF0010067
:101F400009B0BDE8F08F761C032E01D0082EE0D139
:101F5000601CCAF80000DCE7A9690698641C884781
:101F60007F1E2AD420F02000412826D1A969069896
:101F7000641C88477F1E20D420F020004E281CD1EE
:101F8000A9690698641C88477F1E48F4002849F414
:101F90008009CAF8004001D4282806D0E9690698CB
:101FA00088475FEACB7012D022E0A9690698641CCA
:101FB00088477F1E01D4002803DAE969069888471C
:101FC000BCE72928F1D1641CCAF80040E9E71BF0FE
:101FD000240F07D028680499031D2B600068C0E90E
:101FE000001805E02868021D2A600068C0F800900B
:101FF0002046A5E70000F07F494E46494E49545916
:102000000000000001491820ABBEFEE726000200D8
:1020100070470000B0B582B00446002001902168EE
:102020008A68D2074BD1886840F00100886040F28E
:102030000C00C2F2000000684DF68361C4F21B314F
:10204000A0FB0101880C01900198A0B10198013812
:102050000190019878B1019801380190019850B130
:10206000019801380190019828B101980138019038
:1020700001980028EAD100F0F3FE21688968C907B9
:102080001CD1054603E000BF8068C00716D100F0F0
:10209000E7FE411B20680329F6D38168C907F3D105
:1020A000A06A40F01000A062E06A40F00100E06227
:1020B000002084F82400012002B0B0BD002002B04E
:1020C000B0BD0000FEE7000070470000EFF3108095
:1020D00072B600BFFEE7000070B542F20C0604467F
:1020E000C4F2020600F0BCFE3168C9071CD130689A
:1020F000800644BF202030603068C00607D43069B5
:10210000C00704D1306840075CBF002070BD306854
:10211000C00640F24030C2F2000021D400213268F3
:10212000520725D42AE000BFC4B10546601C10D177
:102130003068C007DBD03068C0071CBF30685FEA7A
:10214000C070D4D03068C007F2D1D0E73068C00783
:10215000CDD000F085FE401BA042F7D9032070BD12
:10216000C16941F00201C16110213268520705D5F1
:10217000C26941F0040142F00102C2613269D20732
:1021800002D10120316070BDC26942F00402C26117
:10219000306920F0010030610120316070BD000025
:1021A00010B581B00022009290F82420012A03D1BA
:1021B0000221084601B010BD4B680122062B80F8B1
:1021C000242033D8D0F800C003EB83035A1F1F2309
:1021D000DCF834E003FA02F40B682EEA040403FA94
:1021E00002F22243CCF83420092B03EB430249D9F5
:1021F000DCF80CE01E3A0724896894402EEA0404B7
:10220000914023F001022143102ACCF80C1043D155
:1022100042F20841C4F20101A1F10802944543D001
:10222000816A41F020018162012136E0D0F800C0CE
:102230000C2B03EB830213D8233A1F23DCF830E086
:1022400003FA02F40B682EEA040403FA02F22243B2
:10225000CCF83020092B03EB4302C9D812E000BFB1
:10226000413A1F23DCF82CE003FA02F40B682EEA53
:10227000040403FA02F22243CCF82C20092B03EBCE
:102280004302B5D8DCF81030072489689440A34392
:1022900091401943CCF810100021002280F824202E
:1022A000084601B010BD00BF0A681202F4D40A68E3
:1022B000102B42F400020A60EED140F20C01C2F28F
:1022C000000109684DF68362C4F21B32A1FB0212C1
:1022D000910C01EB81014900009100990029DBD0AC
:1022E00000990139009100990029D5D00099013950
:1022F000009100990029CFD00099013900910099EF
:102300000029C9D0009901390091009900294FF0A6
:102310000001E5D1C1E700000068C06C7047000013
:10232000002804BF01207047B0B50446806A28B178
:1023300021688868C0070CD115E000BF0020E0626A
:1023400084F82400204600F097F821688868C007C8
:1023500009D0886820F00100886000F081FD2168C4
:102360008A68D20726D1A06AC0063AD4A06A41F290
:10237000021290430230A062E069D4E9013240EADF
:10238000030C531EB3FA83F35D091346B2F5807F45
:1023900018BF2B02207D257B01284CEA45002CD15B
:1023A00035B3A56A45F02005A562E56A45F001054B
:1023B000E56222E0054602E08868C007D3D000F05D
:1023C0004FFD401B21680328F6D38868C007F3D06F
:1023D000A06A40F01000A062E06A40F00100E062F4
:1023E000A06AA06A40F01000A0620120B0BD00BF4A
:1023F000A56903EB4533A3F5C0534D68B2F5807F63
:1024000025F4694543EA05034B608B684FF2FD757F
:10241000CFF6E17503EA050343EA00038B6001D0C0
:10242000012A07D122690023CFF6F07303EB025291
:1024300001E000BF0022CB6A23F470031A43CA6292
:10244000896840F6FE62CFF61F721140814207D1C3
:102450000020E062A16A012262F30101A162B0BD25
:10246000A06A40F0100020F00200A062E06A40F094
:102470000100E0620120B0BD80B586B0014640F6A3
:102480000000C4F20100096800F5E05291424FF0EB
:102490000001CDE90411CDE9021101D006B080BDE3
:1024A00041F21801C4F202010A6842F400720A60A3
:1024B0000A6802F400720192019A0A6842F004026A
:1024C0000A60096801F0040101910199012102915A
:1024D0000321039102A900F0ADFB06B080BD00000E
:1024E0002DE9F04182B000270D460446019700F027
:1024F000B7FC21688A68D20544D406464868C005FE
:1025000003D4C86A10F4700F46D040F20C00C2F237
:102510000000076842F292480220C1F2492801F007
:10252000B1F9216844F624130A69B7FBF0F0C2F24E
:1025300092431A4206D1CA6844F62413C0F29203A9
:102540001A425BD00A6912EA080F07D1CA6842F240
:102550009243C0F249031A4200F0C0800A6949F26E
:102560004923C0F224031A424FF0FC0254D1CF6831
:102570001F4208BF5422019B02FB00F7BB4250D30D
:10258000C3E000BFA06A40F02000A06284F824707D
:10259000012002B0BDE8F0810868800700F1B58035
:1025A000681C00F0A880FDB90868800770D508682D
:1025B000800700F1AA800868800769D5086880074D
:1025C00000F1A3800868800762D50868800700F1E1
:1025D0009C80086880075BD508688007E4D594E094
:1025E0000868800700F1918000F03AFC801B2168A8
:1025F000A842F5D908688007F2D449E00A6912EACE
:10260000080F4FF0290207D1CB6842F29247C0F27F
:1026100049073B4208BF1422019B02FB00F7BB4263
:1026200073D2681C52D05DBB0198B84230D3019878
:10263000013001900198B84267D20198B84227D37F
:102640000198013001900198B8425ED20198B842D9
:102650001ED30198013001900198B84255D20198DB
:10266000B84215D30198013001900198B842DBD3EC
:102670004BE000BF0198013001900198B84235D27B
:1026800000F0EEFB801BA842F4D90198B842F1D2C9
:10269000A06A40F00400A062002084F82400032017
:1026A00002B0BDE8F08100BF0198013001900198AF
:1026B000B8422AD20198013001900198B84224D240
:1026C0000198013001900198B8421ED20198013062
:1026D00001900198B842E7D317E000BF5422019B54
:1026E00002FB00F7BB429CD30FE000BF21680CE067
:1026F0000868800709D40868800706D4086880073E
:102700005CBF08685FEA8070F2D56FF01200086065
:10271000A06A40F40070A062886800F46020B0F500
:10272000602F01D1207B18B1002002B0BDE8F081FC
:10273000A06A20F48070A062A06AC004F4D4A06AE9
:1027400040F00100A062002002B0BDE8F08100006E
:1027500010B5044690F82400012804BF022010BDE3
:10276000012084F824002046FFF754FC20B100200B
:1027700084F82400012010BD42F2044C2068A16AB4
:10278000C4F2010C40F2013291430CF57F7201F565
:1027900080719042A16229D0A16A21F48011A162C6
:1027A0004168490504D5A16A012363F30D31A16293
:1027B000A16A0023C9044FF0000144BFE16A21F07F
:1027C0000601E1626FF0020184F824300160816843
:1027D00001F46021B1F5602F1BD1904214D08168C3
:1027E00041F4A0018160002010BD00BFDCF80010A2
:1027F00011F4702FD0D0A16A41F48011A162DCF8ED
:1028000000104905CFD4D3E7DCF8001011F4702F85
:10281000E5D0816841F480118160002010BD000086
:10282000B0B5044690F82400012804BF0220B0BDD2
:102830000121206884F824108168C90709D08168C3
:1028400021F00101816000F00BFB21688968C90754
:102850000ED1214651F8280F41F2011220EA02025E
:10286000002042F001020A60002184F82410B0BD6B
:10287000054602E08068C007EBD000F0F1FA411B8A
:1028800020680329F6D38168C907F3D0A06A2146DE
:1028900040F01000A06251F82C2F0120E1E7000069
:1028A000014690F82100022816D10868D1E90FC32B
:1028B000026822F00E020260026822F00102026049
:1028C000012000FA03F2CCF8042081F82100002056
:1028D000002281F820207047042088630120002214
:1028E00081F820207047000090F82110022923D1A0
:1028F000026840F2040C1168C4F2020C21F00E01CF
:10290000116013682F21C4F202018A4223F00103EF
:10291000136015DD3023C4F202039A421CD0442315
:10292000C4F202039A421BD05823C4F202039A4213
:102930001CD14FF4803321E00421816301207047D2
:102940000823C4F202039A420ED01C23C4F20203ED
:102950009A420BD1102311E04FF480730EE000BFB8
:102960004FF480530AE000BF012307E00CF1680137
:102970004FF080738A4208BF4FF480130121CCF8D6
:10298000003080F82110416B0022002980F82020BF
:1029900004BF0020704780B58847002080BD00003C
:1029A00080B541F20C00C4F202004FF0FF3100226A
:1029B000416042600160026000F0F2FE002080BDD4
:1029C000B0B5044600F04CFA054640F20000C2F2F1
:1029D00000000078611C18BF044400BF00F040FAFA
:1029E000401BA042FAD3B0BD2DE9F04381B040F2C4
:1029F0004035C2F200052A7E012A03D1022001B02F
:102A0000BDE8F08304460120266828764CF2503059
:102A10008846FFF761FB022E1CD100284ED1002012
:102A200042F21004E861C4F20204206840F004009D
:102A30002060206840F0400020604CF25030FFF7EA
:102A40004BFB216821F0040121600021297601B0AF
:102A5000BDE8F08390BB4FF0FF30C8F80000D4E928
:102A60000270414607EB8020874227D242F21006CF
:102A7000C4F202064FF00009C5F81C90306840F01F
:102A8000020030607760306840F0400030604CF207
:102A90005030FFF721FB316821F00201316098B915
:102AA000D4E9020107F5806700EB81208742E3D378
:102AB00000200021297601B0BDE8F083012000212B
:102AC000297601B0BDE8F083C8F8007000212976AE
:102AD00001B0BDE8F083000042F21001C4F202012F
:102AE000086840F0800200200A6070472DE9F0433A
:102AF00081B040F24037C2F2000716463A7E012A02
:102B000004D1022001B0BDE8F08300BF05460120DA
:102B100038764CF250300C469846FFF7DDFA28B173
:102B20000021397601B0BDE8F08300BF42F2100900
:102B30000020C4F20209F861D9F8000040F0010059
:102B4000C9F800004CF250302680FFF7C5FAD9F8DA
:102B50000010002821F00101C9F8001018BF00463C
:102B6000DED1012DDCD00020F861D9F80000310C55
:102B700040F00100C9F800004CF250306180FFF7CE
:102B8000ABFAD9F80010002821F00101C9F80010B3
:102B9000C6D1E81E10F1030F4FF00000C0D8F86155
:102BA000D9F8000040F00100C9F800004CF25030A4
:102BB000A4F80480FFF790FAD9F80010002821F05B
:102BC0000101C9F80010ABD10020F861D9F800006C
:102BD0004FEA184140F00100C9F800004CF25030B3
:102BE000E180FFF779FAD9F80010002821F00101FF
:102BF000C9F8001018BF00460021397601B0BDE8C1
:102C0000F083000042F20400C4F20200C168090629
:102C10005CBF0020704740F22311C4F2675101608D
:102C200048F6AB11CCF6EF510160C068C0B2C009E4
:102C3000704700002DE9F04F82B00E68002E00F0C2
:102C4000FD8041F20042C4F20102042340F2004E32
:102C5000904208BF03234FF6FF7CC4F2010E00939D
:102C600000240123C1F2100C4FF0000A4FF00009BC
:102C70004BE000BF41F20002C4F20102009F90420B
:102C800008BF022704F00C030F229A402BEA02022D
:102C900007FA03F34FEA9A051A4346F825204E68CF
:102CA00040F20C45F202DEF8082054BF22EA080286
:102CB00042EA0802C4F20105CEF808202A68B302ED
:102CC00054BF22EA080242EA08022A60B303DEF88F
:102CD000042054BF22EA080242EA0802F303CEF8B5
:102CE0000420DEF800204FF0010354BF22EA08025E
:102CF00042EA0802CEF800200E680AF1010A36FA0C
:102D00000AF204F1040400F0998003FA0AFB16EABF
:102D10000B08F1D04E68664512DC122E56D8DFE85B
:102D200006F0350B4D495555555555555555555585
:102D300055555545510000BFD1F80C9046E000BFF5
:102D40004FF6FF72C1F2210296420FDC0022C1F25F
:102D5000110296421AD00022C1F21202964215D0F8
:102D60000022C1F22102964210D02FE00022C1F2CF
:102D7000220296420AD00022C1F23102964205D0C8
:102D80000022C1F23202964220D100BF8A684AB1C5
:102D9000012A14BFC0F814B0C0F810B04FF00809F1
:102DA00014E000BF4FF0040910E000BFCA6802F150
:102DB00004090BE04FF0000908E000BFCA6802F107
:102DC000080903E0CA6802F10C0900BF0246264662
:102DD000B8F5807F24BF0432203E17680F25B54028
:102DE00027EA050509FA06F635431560CA79D206C1
:102DF0007FF582AF41F21803C4F202031A68AEF500
:102E00007E7642F001021A601A6802F00102019215
:102E1000019A2AF0030256F802B040F60002C4F20A
:102E20000102904208D040F60042C4F201029042F2
:102E30007FF420AF012725E7002723E702B0BDE894
:102E4000F08F0000C26802EA0103914341EA0341A6
:102E500001617047002A08BF090401617047000042
:102E600040F26030C2F2000000687047002804BFE2
:102E700001207047F0B581B0044690F83D0028B9B4
:102E8000002084F83C00204600F0E6FB242084F873
:102E90003D002068016821F001010160016841F4F2
:102EA00000410160016821F40041016000F0C6FEAC
:102EB000636848F2A16CC0F2010C40F60011C0F248
:102EC0003D0163453CBF48F28041C0F21E0188428B
:102ED00002D2012001B0F0BD4DF68361C4F21B3176
:102EE000A0FB01122168970CD1F804E04FF496760C
:102EF0002EF03F0545EA92454D60774348F6381677
:102F00000D6AC0F24106A7FB067625F03F07634530
:102F100038BF960C721C3A430A62CA6948F2A0662E
:102F20004CF6FF77C0F20106B34222EA07020BD843
:102F300001385B00B0FBF3F001306FF31F30042861
:102F400098BF04201BE000BFA768013857B11927BC
:102F50007B43B0FBF3F001306FF31F3070B100F52D
:102F6000804007E003EB4303B0FBF3F001306FF365
:102F70001F3018B100F5004001E000BF01201043F0
:102F8000C8610868D4E9072320F0C0001043184343
:102F90000860886848F2FF3204F10C0790438CCF38
:102FA00018431043A6698860C86820F0FF003843C2
:102FB0003043C860086840F001000860002020210C
:102FC000206484F83D10206384F83E0001B0F0BD19
:102FD0002DE9F04383B01E46174689460446FFF7A5
:102FE0003FFF94F83D10202924D10546206800BFFA
:102FF000816989071AD5FFF733FF411B20681A2919
:10300000F6D381698907F3D500202021206384F855
:103010003D1084F83E00216C41F02001216484F8C9
:103020003C00022003B0BDE8F08300BF94F83C10E0
:10303000012903D1022003B0BDE8F083012184F807
:103040003C100168C90703D1016841F0010101602A
:10305000016840F2020821F400610160212184F836
:103060003D10102184F83E100021216467626685BE
:10307000618DC0F201082185A8F10211E162E16AC7
:103080000A9E11F5803F18BF01291DD1016841F446
:103090008071016020464FF00111002233460095F7
:1030A00001F0BAFF50B120680068C00544BF4FF47A
:1030B00000702064012003B0BDE8F0832069B0F502
:1030C000804F07D1FE2015E00829DFD0216B12299F
:1030D000DCD0DFE7062000EAD9102168F030086173
:1030E00008F10601204632462B4602F07BF8002804
:1030F000E0D1FF20216800EA09000861204641462E
:1031000032462B4602F06EF80028D3D10020029000
:1031100020684169029180690290029806E000BF30
:10312000204631462A4601F019FF18BB208D68B3AE
:10313000204631462A4602F009F9D8B9606A21686A
:10314000024612F8013B0B616262628D013A6285B0
:10315000228D531E23854F697F07E1D51B04DFD0E5
:10316000437802300B616062608D01386085901E8B
:103170002085D5E7206C04289CD12068016841F4A3
:1031800000710160012003B0BDE8F0832068016890
:1031900041F400710160202084F83D00002084F893
:1031A0003E0084F83C0003B0BDE8F0832DE9F04F09
:1031B00085B004460020994616460F460490FFF756
:1031C0004FFE94F83D10202927D10546206800BF06
:1031D000816989071CD5FFF743FE411B20681A2926
:1031E000F6D381698907F3D500202021206384F874
:1031F0003D1084F83E00206C04F13C0A40F02000B1
:103200002064022000218AF8001005B0BDE8F08F8C
:10321000A2461AF83C1F012904D1022005B0BDE8DE
:10322000F08F00BF01228AF800200368DDE90F1843
:103230000E9ADB0703D1036843F0010303600368C0
:1032400023F400630360222084F83D00402084F8CA
:103250003E000020206462626185608D39462085D1
:103260000020CFF6FF70E062204632464B46CDE9A3
:10327000008501F085FD18B1012005B0BDE8F08F93
:10328000208D022826D001280ED0002838D1002019
:103290000390206841690391816903910399016852
:1032A00041F40071016037E02068016821F4806119
:1032B0000160EFF3108072B600200390206841692E
:1032C0000391816903910399016841F400710160E0
:1032D00062B621E02068016841F400610160EFF30B
:1032E000108072B6002003902068416903918169C3
:1032F00003910399016821F48061016062B60BE0DB
:103300002068016841F480610160002103914169F6
:103310000391806903900398208D002800F0CE80EF
:10332000042740F20C094BF2895BC0F20107C2F29C
:103330000009C1F2F84B23260EE000BF10690870A7
:10334000606A218D01306062481E2085618D0139DF
:103350006185010400F0B28080B203280CD80228F5
:103360002CD001284AD1204641462A4601F0A6FF2A
:10337000002800F09F807FE7204641462A4601F062
:103380009DFF00287FF478AF2068616A00690870AB
:10339000606A2268411C208D616201382085638D3E
:1033A000013B638553695B07D3D580B20328C5D140
:1033B000106820F480601060C0E700BF20463946E6
:1033C00000224346009501F027FE00287FF454AF09
:1033D000EFF3108072B62068616A026842F40072EE
:1033E000026000690870606A218D01306062481EC9
:1033F0002085608D0138608562B65BE020463946E5
:1034000000224346009501F007FE00287FF434AF08
:103410002068016821F480610160EFF3108072B6CA
:103420002068616A00690870606A218D0130013985
:1034300060622185618D01396185D9F80010C90864
:10344000A1FB0B12110A71430491049901390491F3
:10345000049900293ED021684A6952071AD4049978
:10346000013904910499A9B321684A69520711D41A
:10347000049901390491049961B321684A6952079A
:1034800008D4049901390491049919B321684A694F
:103490005207DAD50A6842F400720A6009690170BD
:1034A000606A218D01306062481E2085608D013880
:1034B000608562B62068616A006940E7202084F870
:1034C0003D00002084F83E0000218AF8001005B07D
:1034D000BDE8F08F00202021206384F83D1084F89F
:1034E0003E00206C40F02000206462B601200021E4
:1034F0008AF8001005B0BDE8F08F00002DE9F04318
:1035000083B0994616460F460446FFF7A9FC94F887
:103510003D10202924D10546206800BF8169890714
:103520001AD5FFF79DFC411B20681A29F6D3816943
:103530008907F3D500202021206384F83D1084F80A
:103540003E00216C41F02001216484F83C000220FF
:1035500003B0BDE8F08300BF94F83C10012903D10B
:10356000022003B0BDE8F083012284F83C20036808
:10357000DDE90B180A9ADB0703D1036843F0010366
:103580000360036823F400630360212084F83D0096
:10359000402084F83E000020206462626185608DD6
:1035A000394620850020CFF6FF70E0622046324683
:1035B0004B46CDE9008501F06DFC18B1012003B048
:1035C000BDE8F083208D98B9204641462A4601F097
:1035D000C5FC88B3206C0428F0D12068016841F450
:1035E00000710160012003B0BDE8F0830004EBD05E
:1035F000204641462A4601F0A9FE0028EAD1616A28
:103600002268084610F8013B1361238D6062581E42
:103610002085678D013F678557697F07E6D50704D9
:10362000E4D048781061881C6062981E2085618D06
:1036300001396185DAE700BF2068016841F4007153
:103640000160202084F83D00002084F83E0084F8CA
:103650003C0003B0BDE8F08310B586B0006845F6C5
:103660000001C4F2000188424FF00001CDE90411CD
:10367000CDE9021128D045F20041C4F20001884290
:1036800046D141F21804C4F20204206802A940F0B5
:1036900008002060206800F0080001900198C02018
:1036A0000290122003900320059040F60040C4F2DF
:1036B0000100FFF7BFFA606840F4001060606068C6
:1036C00000F4001022E000BF41F21804C4F202042A
:1036D000206802A940F008002060206800F008007F
:1036E000019001984FF44060029012200390032053
:1036F000059040F60040C4F20100FFF79BFA6068B5
:1037000040F480006060606800F4800001900198DF
:1037100006B010BD40F2000040F26031C2F200007D
:10372000C2F2000100780A68104408607047000087
:1037300080B542F20000C4F20200016841F01001BD
:103740000160032000F08EF80F2000F005F800F073
:1037500029F8002080BD000070B540F20006C2F2DA
:10376000000640F20C013278C2F200014FF47A7385
:103770000968B3FBF2F20446B1FBF2F1084600F02F
:1037800085FC0F2C4FF0010508D838B94FF0FF30F9
:1037900021460022002500F039F87460284670BDEB
:1037A0007047000082B041F21800C4F202000168C4
:1037B000022241F001010160016801F00101019163
:1037C0000199416841F080514160406800F08050AB
:1037D000009000980420C4F20100016862F31A61AD
:1037E000016002B070470000002848BF704700F039
:1037F0001F01012202FA01F11C2202EAD0004EF25E
:103800000012CEF2000281507047000010B54EF653
:103810000C5CCEF2000CDCF80030C3F3022E8EF00C
:103820000704042C28BF0424BEF103034FF0FF3E1D
:103830000EFA04F438BF0023A14399400EFA03F3B3
:103840009A43114300F00F0200F160430901043A6A
:1038500003F564436244002848BF02F10C03197069
:1038600010BD00004EF60C51CEF200010A684FF672
:10387000FF031A4060F30A2242F0806040F0FD70BE
:1038800008607047012821D002280DD0102808D1E7
:1038900041F20401C4F202010A6851F8040CC001AB
:1038A00034D40020704700BF80B500F0DBF941F24E
:1038B0000401C4F2020109680222C1F3813102EB62
:1038C0004101B0FBF1F0BDE88040704741F20400D7
:1038D000C4F20200C16940F202320A40B2F5817FAF
:1038E00004BF4FF40040704701F44071B1F5407FD0
:1038F00018D0B1F5007F1CBF00207047006A49F660
:103900004041800701EAE070704700BFC2F3834086
:1039100015A3185CD2030DD440F60012C0F23D028C
:10392000504313E050F8040C4FF22441800301EAA5
:10393000E07070470A6810A3C2F340429A5C41F2FB
:103940000023C0F27A03B3FBF2F250430968490244
:1039500048BF70474AF6AB214000CAF6AA21A0FB37
:1039600001014808704700BF020304050607080963
:103970000A0B0C0D0E0F1010010200002DE9F04192
:1039800082B00446007841F21C06C007C4F2020669
:103990004AD030685FEAC00808D4306840F08050F0
:1039A0003060306800F080500190019847F20007C5
:1039B000C4F200073868C00512D4386840F480703B
:1039C0003860FFF74DFA05463868C00508D4FFF7A0
:1039D00047FA401B6428F7D9032002B0BDE8F08104
:1039E000706810F4407012D0616801F44071884230
:1039F0000DD0706840F24042C4F24222012320F40C
:103A0000407113600023C0071360716026D1706895
:103A1000616820F440700843B8F1000F706003D46F
:103A2000306820F0805030602068810707D556F854
:103A3000181CA26821F44041114346F8181CC00626
:103A400007D556F8180CE16820F48000084346F8C2
:103A5000180C002002B0BDE8F08100BFFFF700FAAB
:103A6000054641F2883700BF70688007CFD4FFF762
:103A7000F7F9401BB8424FF00300F5D9EAE7000020
:103A8000002804BF012070472DE9F04381B042F2C5
:103A90000008C4F202080446D8F800000D4600F001
:103AA000070088420CD2D8F8000020F00700284315
:103AB000C8F80000D8F8000000F00700A8426CD158
:103AC000206841F204098107C4F2020917D54107B1
:103AD00005D5D9F8001041F4E061C9F800100107DC
:103AE00005D5D9F8001041F46051C9F80010D9F893
:103AF0000010A26821F0F0011143C9F80010C007BE
:103B000042D1D8F8000000F00700A8420CD9D8F83C
:103B1000000020F007002843C8F80000D8F8000093
:103B200000F00700A84238D12068410707D5D9F82E
:103B30000010E26821F4E0611143C9F800100007A9
:103B400008D5D9F80000216920F4605040EAC1008E
:103B5000C9F80000D9F8002002F00C00082841F252
:103B60000020C0F27A004DD149F28653C2F383415E
:103B7000C0F60003595CD20338D440F60010C0F2FE
:103B80003D0048433EE000BF606859F8041C02282D
:103B900008D0012826D1890306D4012001B0BDE850
:103BA000F08300BF8901F8D5D9F8001021F0030196
:103BB0000843C9F80000FFF753F9064641F2883779
:103BC000D9F80000616800F00C00B0EB810F98D0CC
:103BD000FFF746F9801BB842F2D9032001B0BDE8D7
:103BE000F08300BF8907D8D5DEE700BFD9F80020F1
:103BF00049F28453C2F34042C0F600039A5C484342
:103C0000B0FBF2F0D9F8001049F26C52C1F3031185
:103C1000C0F60002515C40F20C0220FA01F140F2C1
:103C20000400C2F200000068C2F200021160FFF757
:103C300093FD002001B0BDE8F083000040F20C00CD
:103C400041F20401C2F20000C4F2020100680968F6
:103C500049F27C52C1F30221C0F60002515CC84017
:103C60007047000040F20C0041F20401C2F2000073
:103C7000C4F202010068096849F27C52C1F3C22112
:103C8000C0F60002515CC84070470000002804BF25
:103C9000012070472DE9F04182B00446007841F2DE
:103CA0000006C007C4F202060CD0706800F00C00D9
:103CB000042840F081803068800303D560680028C4
:103CC00000F04681207880071BD5706810F00C0F3B
:103CD00009D0706800F00C00082840F087807068F8
:103CE000C00300F183803068800703D52069012874
:103CF00040F02E813068616920F0F80040EAC10090
:103D000030602078000713D4207840072CD4E56970
:103D1000002D00F01881706800F00C00082840F0B9
:103D2000A780012D40F00481012002B0BDE8F081A0
:103D3000A069002800F084800020C4F24220012104
:103D4000C0F88014FFF78CF8054600BF706A800742
:103D500000F1B280FFF784F8401B0228F6D9032057
:103D600002B0BDE8F08100BFF0695FEAC00808D486
:103D7000F06940F08050F061F06900F080500090F0
:103D8000009847F20007C4F200073868C00549D41C
:103D9000386840F480703860FFF762F8054600BF6D
:103DA0003868C0053ED4FFF75BF8401B6428F7D99C
:103DB000032002B0BDE8F081706800F00C00082814
:103DC00003D17068C0033FF576AF616830680029A1
:103DD00000F00C81B1F5A02F00F00081B1F5803F1B
:103DE00040F01A8140F480301CE100BF20690028B7
:103DF00040F20000C4F2422000F0888001210160FE
:103E0000FFF72EF8054600BF306880073FF572AF18
:103E1000FFF726F8401B0228F6D9032002B0BDE8C0
:103E2000F08100BFE168306A002900F09D8005291B
:103E300000F09280012940F0AF8040F00100B1E035
:103E40000020C4F242200021C0F88014FFF708F8D7
:103E5000054600BF706A80077FF556AFFFF700F890
:103E6000401B0228F6D9032002B0BDE8F08100BF54
:103E70000027C4F2422700203866FEF7F1FF022D2A
:103E800005460DD13068800140F1DE80FEF7E8FF85
:103E9000401B02284FF00300F4D902B0BDE8F081C6
:103EA000306880014FD5FEF7DBFF401B02284FF042
:103EB0000300F5D9F1E700BF40F20C00C2F20000A8
:103EC000006844F6D351C1F26201A0FB0101480A27
:103ED000019000BF00BF0198411E002801913FF4EE
:103EE00013AF00BF0198411E002801913FF40CAFB1
:103EF00000BF0198411E002801913FF405AF00BFAB
:103F00000198411E00280191E4D1FDE600210160E5
:103F1000FEF7A6FF054600BF306880077FF5F1AECB
:103F2000FEF79EFF401B02284FF00300F4D9B4E7D0
:103F30007068216A00F480328A4209D1616A00F413
:103F40007010884204D1002002B0BDE8F08100BFAB
:103F5000012002B0BDE8F08140F004003062306A18
:103F600040F001001EE000BF20F001003062306A26
:103F700020F004003062FEF773FF054641F28837F7
:103F8000306A800720D5FEF76BFF401BB8424FF028
:103F90000300F5D981E700BF20F001003062306AEC
:103FA00020F004003062FEF75BFF054641F28837DF
:103FB000306A800708D4FEF753FF401BB842F7D998
:103FC000032002B0BDE8F081B8F1000F3FF59FAECD
:103FD000F06920F08050F06199E600BF40F4802045
:103FE0003060306840F480301CE000BF20F4803046
:103FF0003060306820F480203060FEF731FF0546E5
:10400000306880037FF55EAEFEF72AFF401B642810
:104010004FF00300F4D940E720F48030306030687E
:1040200020F480203060FEF71BFF054630688003D7
:104030003FF548AEFEF714FF401B6428F6D9032075
:1040400002B0BDE8F08100BF206AB0F5803F05D125
:104050007168A26821F40031114371607168626A6D
:1040600021F4741111430843706001203866FEF793
:10407000F7FE0446306880013FF565AFFEF7F0FEBD
:10408000001B02284FF00300F4D906E7411E002070
:10409000B0EB116F1CBF012070474EF21002CEF240
:1040A000000251604EF62351CEF20001F0230B7056
:1040B000072190601160704790F83C20012A4FF072
:1040C000020236D010B580F83D200268D2F804E034
:1040D000D2F808C00C682EF07003234340F2FF743E
:1040E000C4F20004A24253600ADCB2F1804F13D044
:1040F00040F20043C4F200039A420DD011E000BF29
:1041000042F60043C4F201039A4205D040F6000390
:10411000C4F200039A4204D149682CF08003194389
:1041200091600121002280F83D1080F83C20BDE81C
:104130001040104670470000002804BF012070475F
:1041400010B590F83D1031B9002180F83C100446BC
:1041500000F070F82046022180F83D10016840F21E
:10416000FF740B68C4F2000442F6004CA142C4F292
:10417000010C15DCB1F1804F1AD040F20042C4F2BC
:104180000002914214D0A14218DCB1F1804F1DD041
:1041900040F20042C4F20002914217D01AE000BF80
:1041A000614505D040F60002C4F200029142EAD116
:1041B000826823F070031343A142E6DD614505D018
:1041C00040F60002C4F20002914203D1026923F4D6
:1041D00040731343846923F08002D0F804E0C3687D
:1041E000224361450A60CB62C1F828E002D14269EE
:1041F000CCF8302001224A610B69DB0703D00B6940
:1042000023F001030B6180F8462080F83E2080F8FF
:104210003F2080F8402080F8412080F8422080F83C
:10422000432080F8442080F8452080F83D2000207D
:1042300010BD0000006842F60041C4F2010188424E
:1042400018BF704781B041F21800C4F20200016843
:1042500041F400610160006800F400600090009883
:1042600001B0704790F83C20012A4FF002026CD058
:1042700080B580F83D20D0F800C04FF67772DCF8AA
:10428000083023EA0202CCF808200B684F2B29DC07
:104290001F2B45DD202B46D0302B44D0402B40F047
:1042A000AF80D1F804E0C968DCF82030DCF82020C9
:1042B00022F00102CCF82020DCF8182022F0F002D5
:1042C00042EA011123F00A0242EA0E02CCF8181069
:1042D000CCF82020DCF8081041F0470121F0300133
:1042E00028E000BF6F2B33DDB3F5005F74D0B3F56A
:1042F000805F21D0702B40F08380D1E901E3C96851
:10430000DCF8082043EA0E0322F47F4243EA01214D
:104310001143CCF80810DCF8081041F0770109E0EF
:104320000BB1102B6CD1DCF8081021F0700119438F
:1043300041F00701CCF808100022012180F83D105F
:10434000002180F83C10BDE880401046704700BF57
:10435000502B21D0602B53D1D1F804E0C968DCF890
:104360002030DCF8202022F01002CCF82020DCF8ED
:10437000182022F4704242EA013123F0A00242EAFE
:104380000E12CCF81810CCF82020DCF8081041F000
:10439000670121F01001CDE7D1F804E0C968DCF82D
:1043A0002030DCF8202022F00102CCF82020DCF8BC
:1043B000182022F0F00242EA011123F00A0242EA38
:1043C0000E02CCF81810CCF82020DCF8081041F0D0
:1043D000570121F02001ADE7D1E901E3C968DCF81C
:1043E000082043EA0E0322F47F4243EA01211143ED
:1043F000CCF80810DCF8081041F480419AE700BFBF
:1044000001229AE77047000070470000B0B582B003
:1044100001680A68CC684B6902F02F05202D04F072
:10442000200505D125B102B0BDE8B04001F0A4B926
:104430005FEA027C1EBF03F0010E04F4907313EBDD
:104440000E0341D1036BD50618D5012B16D114F0FC
:10445000100313D0002201920A6801924A68019267
:10446000019A496949064BD4818DC28DC38D002BB9
:1044700018BF914240F0F48102B0B0BD13062DD5B3
:1044800014F080032AD090F84120212AF4D18268C8
:10449000B2F5805F03D10269002A00F06782026AE8
:1044A000531C036212784A60C28C013A1304C2841E
:1044B000E2D1C86820F08000C860C86840F04000C1
:1044C000C86002B0B0BD00BFD30718BF14F480733A
:1044D00040F0D080530700F1D380D8E05206CBD50E
:1044E00014F04002C8D0CA6822F04002CA602021FD
:1044F00080F8411002B0BDE8B04000F03DBC00BF04
:10450000C16B0A68526893B2002BB5D0858DAB425F
:10451000B2D2C2858969202900F0A180016851E8E2
:10452000031F026821F4807142E80313DBB10168C4
:1045300051E8031F026821F4807142E8031393B12C
:10454000016851E8031F026821F4807142E80313F7
:104550004BB1016851E8031F026821F4807142E801
:104560000313002BDAD1016851E8051F026821F01E
:10457000010142E80513C3B3016851E8051F026851
:1045800021F0010142E805137BB3016851E8051FE2
:10459000026821F0010142E8051333B3016851E8D4
:1045A000051F026821F0010142E80513002BDAD152
:1045B0001BE000BF016851E8051F026821F04001BF
:1045C00042E80513DBB1016851E8051F026821F0DC
:1045D000400142E8051393B1016851E8051F0268E4
:1045E00021F0400142E805134BB1016851E8051F75
:1045F000026821F0400142E80513002BDAD12021A6
:1046000080F8421000210163016851E8031F02682D
:1046100021F0100142E80313DBB1016851E8031FE8
:10462000026821F0100142E8031393B1016851E8D8
:10463000031F026821F0100142E803134BB1016827
:1046400051E8031F026821F0100142E80313002B18
:10465000DAD1C16B04460846FEF722F92046022152
:104660004163818DC28D891A89B202B0BDE8B04024
:10467000FFF7C8BE436C43F001034364530706D5FC
:10468000BEF1000F03D0436C43F002034364930771
:1046900006D5BEF1000F03D0436C43F0040343641E
:1046A000BCF1000F06D55EEA050303D0436C43F06E
:1046B00008034364436C002B3FF4DEAE920605D53D
:1046C00025B1044601F058F8216820464969426C3A
:1046D00001F0400102F00802891800F0B98000BF23
:1046E000016851E8031F026821F4907142E8031346
:1046F000BBB3016851E8031F026821F4907142E8DE
:10470000031373B3016851E8031F026821F4907129
:1047100042E803132BB3016851E8031F026821F438
:10472000907142E80313002BDAD11AE0016851E8D6
:10473000051F026821F0010142E80513DBB10168A1
:1047400051E8051F026821F0010142E8051393B109
:10475000016851E8051F026821F0010142E80513D4
:104760004BB1016851E8051F026821F0010142E8E0
:104770000513002BDAD1016B012924D1016851E81E
:10478000031F026821F0100142E80313DBB1016846
:1047900051E8031F026821F0100142E8031393B1AE
:1047A000016851E8031F026821F0100142E8031379
:1047B0004BB1016851E8031F026821F0100142E883
:1047C0000313002BDAD1202180F84210002101636D
:1047D00001684969490640F1C380016851E8051F35
:1047E000026821F0400142E80513DBB1016851E89D
:1047F000051F026821F0400142E8051393B10168EA
:1048000051E8051F026821F0400142E805134BB151
:10481000016851E8051F026821F0400142E80513D4
:10482000002BDAD1C16B002900F09A8045F26D723D
:10483000C0F60002044608464A63FEF755F8002811
:104840003FF41AAEE06B416B02B0BDE8B0400847E0
:104850000446FFF7D9FD0020606402B0B0BD00BF80
:10486000891A00BF026852E8032F036822F490728D
:1048700043E80325BDB3026852E8032F036822F41E
:10488000907243E8032575B3026852E8032F03686A
:1048900022F4907243E803252DB3026852E8032FF7
:1048A000036822F4907243E80325002DDAD11AE060
:1048B000026852E8052F036822F0010243E805254B
:1048C000DDB1026852E8052F036822F0010243E8D7
:1048D000052595B1026852E8052F036822F0010210
:1048E00043E805254DB1026852E8052F036822F020
:1048F000010243E80525002DDAD1202280F842206C
:1049000000220263026852E8032F036822F01002BB
:1049100043E80325DDB1026852E8032F036822F063
:10492000100243E8032595B1026852E8032F03689B
:1049300022F0100243E803254DB1026852E8032F2C
:10494000036822F0100243E80325002DDAD1022289
:1049500089B2426302B0BDE8B040FFF753BD00BF6B
:1049600002B0BDE8B040FFF74FBD00BF026A32F8A9
:10497000023B6FF35F234B60026295E5002804BFA2
:104980000120704710B5044690F8410028B9002076
:1049900084F84000204600F063F8242084F84100A9
:1049A0002068D4E90212C36823F40053C36003698A
:1049B00023F440531A430261D4E904231143C2682B
:1049C000194341F20C639A431143C1604169A269E2
:1049D00021F44071114343F60002C4F201029042F7
:1049E000416103D0FFF72AF902E000BFFFF73AF96F
:1049F000D4E90023192148439900B0FBF1F048F2B3
:104A00001F5CC5F2EB1CA0FB0C314FF69C734909EF
:104A1000C0F6FF7301FB0300322303EB0010A0FB81
:104A20000C03F02000EA531000EB0110C3F3431114
:104A3000084490601069202120F490401061506972
:104A400020F02A005061D06840F40050D06000206F
:104A5000606484F8411084F84210606310BD000067
:104A600070B586B0006844F20041C4F2000100262F
:104A700088420596CDE9036602963FD043F60001D1
:104A8000C4F20101884266D141F21800C4F202006A
:104A9000016840F6000441F4804101600168C4F2FD
:104AA000010401F4804101910199016802AD41F0D6
:104AB000040101600068294600F00400019001989B
:104AC0004FF40070029002200390032005902046CE
:104AD000FEF7B0F84FF4806002900020CDE90300AB
:104AE00020462946FEF7A6F8252001210022FEF7E0
:104AF0008DFE2520FEF778FE06B070BD41F218004D
:104B0000C4F20200416840F6000441F40031416003
:104B10004168C4F2010401F4003101910199016876
:104B200002AD41F0040101600068294600F0040074
:104B30000190019804200290022003900320059028
:104B40002046FEF777F80820CDE9020620462946E0
:104B50000496FEF76FF806B070BD000090F8423082
:104B6000202B07D100294FF0010318BF002A05D1DF
:104B70001846704702231846704700BF002303639E
:104B8000816222218285C285436480F842100169D6
:104B9000006819B1C16841F48071C160416941F098
:104BA00001014161C16841F02001C16018467047B0
:104BB000B0B540F27815C2F200050068296B884252
:104BC00018BFB0BD40F27004C2F20004207801F0BA
:104BD000B3FD05F1300021460122BDE8B040FFF7EA
:104BE000BDBF00002DE9F04381B0044690F84100BC
:104BF000202809D100294FF0010018BF002A07D151
:104C000001B0BDE8F08300BF022001B0BDE8F08331
:104C10000020606421201D460E4684F8410017469E
:104C2000FEF71EF9A784E784A1688146B1F5805F8D
:104C300002D1206900285DD037460020E28C21682F
:104C4000002A5DD06A1C24D0002D4AD0804600BFC7
:104C50000868000608D4FEF703F9A0EB0900A84293
:104C60007AD82168C868F3E717B117F8010B04E098
:104C700038F8020B00276FF35F204860E08C0138A2
:104C8000E084E08C0028E3D13AE000BF0A68120615
:104C900009D40A68120606D40A6812065CBF0A68BC
:104CA0005FEA0262F2D51FB117F8012B05E000BFE1
:104CB00030F8022B00276FF35F224A60E28C013A42
:104CC000E284E28C002AE4D11AE000BF30F8022B23
:104CD00000276FF35F224A60E28C013AE284E28CA3
:104CE00072B10A68120635D5002FEFD017F8012BE4
:104CF000F1E700BF00273046E28C2168002AA1D1ED
:104D0000086840061ED42DB3681C14D108684006FC
:104D10002AD40868400627D40868400624D40868C6
:104D200040064FF00000F1D50DE000BF2068C168DB
:104D30000068400618D4FEF793F8A0EB0900A842DB
:104D4000F4D909E00020202184F8411001B0BDE829
:104D5000F08300BFFEF784F80320202184F841107F
:104D600001B0BDE8F08300BF0020202184F841108D
:104D700001B0BDE8F083000070470000FEE70000CE
:104D80002DE9F04782B0044600689A460B9D0A9EC2
:104D90000368914643F48062026002680F4642F461
:104DA0008071016020464FF00111002233460095CA
:104DB00000F032F950B120680068C00544BF4FF4DC
:104DC00000702064032002B0BDE8F08740F20208C2
:104DD0002068C0F2010807F0FE070761204641463F
:104DE00032462B4600F0FEF920B1012002B0BDE8AA
:104DF000F08700BF0020019020682A464169019198
:104E00008069314601900198204600F09FFAB0B9C0
:104E10002068BAF1010F09D04FEA1921016120463B
:104E200031462A4600F092FA48B920685FFA89F1C3
:104E30000161204631462A4600F088FA60B1206CB4
:104E40000428D2D12068016841F40071016001207A
:104E500002B0BDE8F08700BF206800220168334639
:104E600041F48071016020464FF00111009500F07F
:104E7000D3F800289FD147F0010C2768204641460F
:104E800032462B46C7F810C002B0BDE8F04700F02C
:104E9000A9B900002DE9F04383B0044600680F462D
:104EA00001680A9D0B9E41F480719946904601600D
:104EB00020464FF0011100222B46009600F0ACF87E
:104EC00050B120680068C00544BF4FF400702064F2
:104ED000032003B0BDE8F083206807F0FE01016104
:104EE0000221C0F2010120462A46334600F07AF939
:104EF00020B1012003B0BDE8F08300BF0020029084
:104F000020683246416902918069294602900298E0
:104F1000204600F01BFA58B1206C0428E9D1206823
:104F2000016841F400710160012003B0BDE8F08325
:104F30002068B9F1010F0AD04FEA1821016120461B
:104F40002946324600F002FA0028E5D120685FFACF
:104F500088F10161002003B0BDE8F08370B50368FB
:104F6000044653F8140F400711D40E46481C29D0AC
:104F700086BB00BF1868400527D4FDF771FF236882
:104F800053F8140F400737D518684007F2D50020B2
:104F900070BD00BF18684007F9D41868400514D4E4
:104FA00018684007F3D4186840050ED41868400705
:104FB000EDD41868400508D4186840074FF0000089
:104FC00048BF70BD18684005E4D56FF48060186074
:104FD000042012E0154603E053F8140F4007D6D41E
:104FE00018684005F1D4FDF73BFF401B2368B04231
:104FF000F2D958694007EFD42020002120222163F4
:1050000084F83D2084F83E10226C10432064012077
:1050100084F83C1070BD00002DE9F04105460068A1
:105020001E46144601F47F0201338FB242D0DDF8F0
:105030001880B2F5803F40F0878040693840C01B3F
:10504000B0FA80F04009A04240F0C8804EB924E098
:1050500040693840C01BB0FA80F04009A04240F0DF
:10506000BD80FDF7FDFEA0EB08012868B142EFD935
:1050700041693940C91BB1FA81F14909A142E7D11F
:105080009BE000BF40693840C01BB0FA80F0400987
:10509000A0424FF0000040F0A280FDF7E1FE28683A
:1050A00041693940C91BB1FA81F14909A142E9D1ED
:1050B00083E000BFB2F5803F24D100BF4169394091
:1050C000C91BB1FA81F14909A14240F087804169C9
:1050D0003940C91BB1FA81F14909A14240F07E80F3
:1050E00041693940C91BB1FA81F14909A14275D121
:1050F00041693940C91BB1FA81F14909A142DDD0AA
:105100006CE000BF81693940C91BB1FA81F14909DE
:10511000A14263D181693940C91BB1FA81F14909C2
:10512000A1425BD181693940C91BB1FA81F14909BA
:10513000A14253D181693940C91BB1FA81F14909B2
:10514000A142DFD04AE000BF80693840C01BB0FAFE
:1051500080F04009A04241D146B923E0806938403F
:10516000C01BB0FA80F04009A04237D1FDF778FEAD
:10517000A0EB08012868B142F0D981693940C91B08
:10518000B1FA81F14909A142E8D116E080693840BD
:10519000C01BB0FA80F04009A0424FF0000018BFD9
:1051A000BDE8F081FDF75CFE286881693940C91BC4
:1051B000B1FA81F14909A142E8D1002020212863F8
:1051C00085F83D1085F83E00296C41F020012964E6
:1051D00085F83C000120BDE8F08100BF0020BDE85B
:1051E000F0810000F0B581B0044600681D464369B7
:1051F0008FB203EA0701B94202D1002001B0F0BD2D
:105200004169164601323CD0490512D47EB300BF35
:10521000FDF726FE411B2068B14203D941693940A0
:10522000B9422BD141693940B942E6D041694905BB
:10523000EED5016841F4007101606FF48061416155
:10524000042000212022216384F83D2084F83E10B0
:10525000226C1043206484F83C10012001B0F0BDA2
:1052600041693940B942C8D041694905E1D4FDF7E7
:10527000F7FD206841693940B942F1D02020E0E7CC
:1052800041694905D5D441693940B942B5D0416930
:105290004905CED441693940B942AED0416949058A
:1052A000C7D441693940B942A7D041694905C0D442
:1052B00041693940B942E3D19FE7000070B5044627
:1052C0000068154650F8143F5A063DD40E4629B9D9
:1052D00026E000BF50F8141F490635D40168C906FE
:1052E00021D4FDF7BDFD411B2068B142F2D94169CF
:1052F0004906EFD400202021206384F83D1084F873
:105300003E00206C40F0200018E000BFFDF7A8FD33
:10531000206850F8141F4906ECD50168490613D4DB
:105320000168C906F2D56FF010010160002020214C
:10533000206384F83D1084F83E00206C2064002037
:1053400084F83C00012070BD002070BD70B503687A
:10535000044653F8140F000611D40E46481C29D0F9
:1053600086BB00BF1868400527D4FDF779FD236888
:1053700053F8140F000637D518680006F2D5002040
:1053800070BD00BF18680006F9D41868400514D431
:1053900018680006F3D4186840050ED41868000693
:1053A000EDD41868400508D4186800064FF00000D6
:1053B00048BF70BD18684005E4D56FF48060186080
:1053C000042012E0154603E053F8140F0006D6D46B
:1053D00018684005F1D4FDF743FD401B2368B04237
:1053E000F2D958690006EFD4202000212022216341
:1053F00084F83D2084F83E10226C10432064012084
:1054000084F83C1070BD00002DE9F04F8BB00129ED
:1054100070DB064600248846002500204FF0000B74
:105420004FF000094FF0000A04910890059600BF64
:105430000DF126013068009106210191D0213B2217
:1054400001234FF47A770297FDF7B0FEBDF82600EE
:10545000BDF8281000BA069008BABDF82A100790C7
:1054600030680EBA0DF12601009106210191D0217C
:10547000432201230297FDF799FE069BBDF8260003
:1054800004EB2344079BBDF8281005EB2345089B3C
:10549000BDF82A2000BA03EB264309BA12BA059ECA
:1054A000A3F580530BEB204B0120089309EB214916
:1054B0000AEB224AFDF784FAB8F10108B8D1204678
:1054C00003F046FD8046284603F042FD0546089855
:1054D00003F03EFD0446584603F03AFD8346484635
:1054E00003F036FD8146504603F032FD04998246B2
:1054F0000AE000BF4FF0000A4FF000094FF0000B28
:10550000002400254FF00008084603F021FD064660
:105510004046314603F026FC40F2F407C2F2000791
:1055200078602846314603F01DFCB86020463146BD
:1055300003F018FCF8605846314603F013FC38615C
:105540004846314603F00EFC78615046314603F080
:1055500009FCB8610BB0BDE8F08F0000B0B586B0B3
:105560000446006806210DF112024FF47A75CDE968
:105570000021D0213B2201230295FDF717FEBDF843
:105580001200C0BA02F04AFF0025C3F630750022AF
:105590002B4602F0E5FF02F0BBFCBDF81410606082
:1055A000C8BA02F03BFF00222B4602F0D9FF02F0FE
:1055B000AFFCBDF81610A060C8BA02F02FFF0022A1
:1055C0002B4602F0CDFF02F0A3FCE06006B0B0BDB8
:1055D000B0B586B00446006806210DF112024FF402
:1055E0007A75CDE90021D021432201230295FDF7F0
:1055F000DDFDBDF81200C0BA02F010FF46F2000552
:10560000C4F2500500222B4602F070FD02F080FC2F
:10561000BDF814102061C8BA02F000FF00222B462A
:1056200002F064FD02F074FCBDF816106061C8BAA7
:1056300002F0F4FE00222B4602F058FD02F068FC56
:10564000A06106B0B0BD0000F0B581B00446FFF720
:1056500085FF2046FFF7BCFFD4E90150E66801460C
:1056600003F0F6FC07462846294603F0F1FC3946CC
:1056700003F0B6FA05463046314603F0E9FC294608
:1056800003F0AEFA03F080FA02F0F0FB0023CBF651
:10569000F073002202F06EFC02F03AFC20F00045AC
:1056A0004CF6CD41C3F64C51284603F048FB002888
:1056B00018BF0025E56101B0F0BD00002DE9F04103
:1056C00084B0016001260DF10F000C464FF47A758D
:1056D000CDE900060846D021752201230295FDF789
:1056E00065FD9DF80F00682830D100270DF10E08E8
:1056F0002046D0216B2201238DF80E70CDE9008663
:105700000295FDF7FBFE2046D021192201238DF8DA
:105710000E70CDE900860295FDF7F0FE10208DF8A1
:105720000E002046D0211C220123CDE900860295DF
:10573000FDF7E4FE08208DF80E002046D0211B2244
:105740000123CDE900860295FDF7D8FE04B0BDE83F
:10575000F0810000FEE70000FEE700007047000057
:1057600070470000FDF7D6BF70470000406A002177
:10577000C185C184FEF748BE81B090F8421022294D
:1057800021D183680246B3F5805F09D152F8281F02
:1057900052F8183C002B63D003685B680AE000BF36
:1057A00052F8281F13B90369002BF5D003685B6812
:1057B00003F07F030B70116801311160C18D013955
:1057C0000A04C18502D001B0704700BF0168CA68F1
:1057D00022F02002CA60CA6822F48072CA604A6954
:1057E00022F001024A61202180F842100021416329
:1057F000026B012A3CD10163016851E8031F026872
:1058000021F0100142E80313DBB1016851E8031FE6
:10581000026821F0100142E8031393B1016851E8D6
:10582000031F026821F0100142E803134BB1016825
:1058300051E8031F026821F0100142E80313002B16
:10584000DAD101680A68D20606D5002200920A68F9
:105850000092496800910099818D01B0FEF7D2BD98
:10586000026852686FF35F2221F8022B8162A5E77C
:1058700001B0FFF79DB9000040F2A810C2F200008D
:10588000FEF7C4BDFEE70000B0B50446C9698069F3
:10589000154603F04DFA48BBE868E16903F04FFA9A
:1058A00020B340F2E4052069A18A94F82020C2F2D6
:1058B000000501232B70FDF7CDFA94F82000012894
:1058C00022D1FDF7CDFAE968401A642838BFB0BD8F
:1058D000FDF7C6FAA268A189E8601046FDF7B2FAA2
:1058E0002068A188BDE8B040FDF7ACBA40F2E403FF
:1058F000C2F2000300252069A18A01221D70BDE8C3
:10590000B040FDF7A7BA00BFA068A1890022FDF74B
:10591000A1FA2068A1880022BDE8B040FDF79ABA3C
:1059200070B54FF600450E460446C0F6010500F07E
:1059300055F9284600F0F8F828462146042200F0E0
:105940004FF900F003F98EB1012E18BF70BD40F27F
:10595000F402C2F20002507870B90123204664219B
:105960005370BDE87040FFF74FBD00BF40F2F40335
:10597000C2F20003187808B170BD00BF01262846A6
:10598000214620221E70BDE8704000F0E1B8000002
:105990002DE9F04F85B00025834600274FF03208EF
:1059A000C4F21405002400262EE000BF40F20009D6
:1059B0004FF0000ACBF6F07950464946002200230A
:1059C00003F07EF90028504649464FF000024FF0A0
:1059D000004318BF013603F081F900281CBF4FF0C7
:1059E00000494FF0000A0199384652464B4602F0F2
:1059F000C1FA074664200C46FCF7E2FF0025B8F127
:105A00000108C4F2140555D0DBE9000101940291AC
:105A1000012103910721049102A9FCF7C1FB002891
:105A200018BFFCF753FBDBF80000FCF791FEDBF836
:105A300000006421FCF754FDDBF80000FCF76CFC6F
:105A4000DBF8001004460846FCF7EAFE002CADD057
:105A50002046009702F0F9FC4FF600630022C4F2E2
:105A6000AF034FF0000A02F041FB00222B4602F088
:105A700077FD0022002304460F4603F02FF998B962
:105A80000020294622463B4602F030FB002300223C
:105A9000CBF6F07302F06EFA00222B4602F060FDA6
:105AA0008246894604E000BF40F20009CBF6F07957
:105AB000009F81E7B6B1304602F0B0FC02460B46CB
:105AC0003846214602F012FB45F629424AF6F50314
:105AD000CCF28F22C4F2230302F008FB02F018FA82
